:020000040800F2
:100000000080002011170008451300084B1300085A
:1000100051130008571300085D130008000000008A
:10002000000000000000000000000000B19C00087B
:100030006313000800000000919E0008D99E00088C
:1000400059170008591700085917000859170008D0
:1000500059170008591700085917000859170008C0
:1000600059170008591700085917000859170008B0
:1000700059170008591700085917000859170008A0
:100080005917000859170008591700085917000890
:100090005917000859170008591700085917000880
:1000A0005917000859170008591700085917000870
:1000B000711300085917000859170008591700084C
:1000C0005917000859170008591700085917000850
:1000D0005917000859170008851300085917000818
:1000E0005917000859170008591700085917000830
:1000F0005917000800000000591700085917000898
:1001000000000000000000005917000859170008FF
:100110005917000859170008591700080000000077
:100120005917000800000000000000000000000057
:0C01300000000000000000005FF808F173
:1001400010B5054C237833B9044B13B10448AFF311
:1001500000800123237010BD8C00002000000000EF
:10016000B8B3000808B5034B1BB103490348AFF30C
:10017000008008BD0000000090000020B8B3000817
:1001800070B54FF0FF0C4CF4E06C1CEA11541DBF2D
:100190001CEA135594EA0C0F95EA0C0F00F0DEF8F8
:1001A0002C4481EA030621EA4C5123EA4C5350EADD
:1001B000013518BF52EA033541F4801143F480132E
:1001C00038D0A0FB02CE4FF00005E1FB02E506F0BF
:1001D0000042E0FB03E54FF00006E1FB03569CF014
:1001E000000F18BF4EF0010EA4F1FF04B6F5007F1A
:1001F00064F5407404D25FEA4E0E6D4146EB06068C
:1002000042EAC62141EA55514FEAC52040EA5E5014
:100210004FEACE2EB4F1FD0C88BFBCF5E06F1ED8BE
:10022000BEF1004F08BF5FEA500E50F1000041EBF5
:10023000045170BD06F0004646EA010140EA0200A2
:1002400081EA0301B4EB5C04C2BFD4EB0C0541EAC4
:10025000045170BD41F480114FF0000E013C00F3D9
:10026000AB8014F1360FDEBF002001F0004170BDFD
:10027000C4F10004203C35DA0C341BDC04F1140416
:10028000C4F1200500FA05F320FA04F001FA05F2A2
:1002900040EA020001F0004221F0004110EBD3706F
:1002A00021FA04F642EB06015EEA430E08BF20EA9B
:1002B000D37070BDC4F10C04C4F1200500FA04F33E
:1002C00020FA05F001FA04F240EA020001F00041D0
:1002D00010EBD37041F100015EEA430E08BF20EA43
:1002E000D37070BDC4F1200500FA05F24EEA020E8B
:1002F00020FA04F301FA05F243EA020321FA04F0BA
:1003000001F0004121FA04F220EA020000EBD37070
:100310005EEA430E08BF20EAD37070BD94F0000F70
:100320000FD101F00046400041EB010111F4801FA4
:1003300008BF013CF7D041EA060195F0000F18BF55
:10034000704703F00046520043EB030313F4801F91
:1003500008BF013DF7D043EA0603704794EA0C0F4B
:100360000CEA135518BF95EA0C0F0CD050EA410661
:1003700018BF52EA4306D1D181EA030101F00041DE
:100380004FF0000070BD50EA410606BF1046194606
:1003900052EA430619D094EA0C0F02D150EA013612
:1003A00013D195EA0C0F05D152EA03361CBF104653
:1003B00019460AD181EA030101F0004141F0FE41F2
:1003C00041F470014FF0000070BD41F0FE4141F476
:1003D000780170BD81F0004102E000BF83F000436E
:1003E00030B54FEA41044FEA430594EA050F08BFD0
:1003F00090EA020F1FBF54EA000C55EA020C7FEA94
:10040000645C7FEA655C00F0E2804FEA5454D4EB10
:100410005555B8BF6D420CDD2C4480EA020281EADA
:10042000030382EA000083EA010180EA020281EA12
:100430000303362D88BF30BD11F0004F4FEA013164
:100440004FF4801C4CEA113102D0404261EB410173
:1004500013F0004F4FEA03334CEA133302D05242F9
:1004600063EB430394EA050F00F0A780A4F10104B5
:10047000D5F1200E0DDB02FA0EFC22FA05F28018EF
:1004800041F1000103FA0EF2801843FA05F35941D5
:100490000EE0A5F120050EF1200E012A03FA0EFC54
:1004A00028BF4CF0020C43FA05F3C01851EBE3717E
:1004B00001F0004507D54FF0000EDCF1000C7EEB9B
:1004C00000006EEB0101B1F5801F1BD3B1F5001FD9
:1004D0000CD349085FEA30004FEA3C0C04F10104F8
:1004E0004FEA445212F5800F80F09A80BCF1004F21
:1004F00008BF5FEA500C50F1000041EB045141EAA3
:10050000050130BD5FEA4C0C404141EB0101013C6B
:1005100028BFB1F5801FE9D291F0000F04BF01465A
:100520000020B1FA81F308BF2033A3F10B03B3F12C
:1005300020020CDA0C3208DD02F1140CC2F10C02BC
:1005400001FA0CF021FA02F10CE002F11402D8BF1A
:10055000C2F1200C01FA02F120FA0CFCDCBF41EAE6
:100560000C019040E41AA2BF01EB0451294330BDB5
:100570006FEA04041F3C1CDA0C340EDC04F1140492
:10058000C4F1200220FA04F001FA02F340EA030069
:1005900021FA04F345EA030130BDC4F10C04C4F1AF
:1005A000200220FA02F001FA04F340EA030029468F
:1005B00030BD21FA04F0294630BD94F0000F83F4D9
:1005C000801306BF81F480110134013D4EE77FEABC
:1005D000645C18BF7FEA655C29D094EA050F08BF08
:1005E00090EA020F05D054EA000C04BF19461046E9
:1005F00030BD91EA030F1EBF0021002030BD5FEA2D
:10060000545C05D14000494128BF41F0004130BD54
:1006100014F580043CBF01F5801130BD01F00045A8
:1006200045F0FE4141F470014FF0000030BD7FEA1B
:10063000645C1ABF194610467FEA655C1CBF0B4616
:10064000024650EA013406BF52EA033591EA030F2D
:1006500041F4002130BD00BF90F0000F04BF002125
:10066000704730B54FF4806404F132044FF0000558
:100670004FF0000150E700BF90F0000F04BF0021D1
:10068000704730B54FF4806404F1320410F0004537
:1006900048BF40424FF000013EE700BF42004FEA32
:1006A000E2014FEA31014FEA02701FBF12F07F43AF
:1006B00093F07F4F81F06051704732F07F4208BF66
:1006C000704793F07F4F04BF41F40021704730B56D
:1006D0004FF4607401F0004521F000411CE700BFB9
:1006E00050EA010208BF704730B54FF000050AE03C
:1006F00050EA010208BF704730B511F0004502D53D
:10070000404261EB41014FF4806404F132045FEA3E
:10071000915C3FF4D8AE4FF003025FEADC0C18BFE7
:1007200003325FEADC0C18BF033202EBDC02C2F1D9
:10073000200300FA03FC20FA02F001FA03FE40EA6B
:100740000E0021FA02F11444BDE600BF4A0011D2A6
:1007500012F5001211D20DD56FF47873B3EB62521B
:100760000ED44FEAC12343F0004343EA505323FA27
:1007700002F070474FF00000704750EA013002D19C
:100780004FF0FF3070474FF00000704753B94AB93F
:10079000002908BF00281CBF4FF0FF314FF0FF3089
:1007A00000F06EB9ADF1080C6DE904CE00F006F86A
:1007B000DDF804E0DDE9022304B070472DE9F047DD
:1007C000089E0D4604468E46002B40F083808A42E8
:1007D000174647D9B2FA82F34BB1C3F1200105FAAB
:1007E00003FE20FA01F19F4041EA0E0E9C404FEAC1
:1007F0001748BEFBF8FC1FFA87F908FB1CE20CFB4C
:1008000009F0210C41EA024290420AD9BA180CF1CF
:10081000FF3180F01881904240F21581ACF1020C5A
:100820003A44121AB2FBF8F008FB102200FB09F15F
:10083000A4B244EA0244A14209D93C1900F1FF32B2
:1008400080F00381A14240F2008102383C44641AE6
:10085000002140EA0C401EB10022DC40C6E9004203
:10086000BDE8F08702B9FFDEB2FA82F3002B4FD168
:100870008D1A01214FEA124E1FFA82F8B5FBFEFCD9
:100880000EFB1C5508FB0CF0220C42EA0545A84261
:1008900007D97D190CF1FF3202D2A84200F2E9809B
:1008A00094462D1AB5FBFEF00EFB105508FB00F820
:1008B000A4B244EA0544A04507D93C1900F1FF322F
:1008C00002D2A04500F2D9801046A4EB080440EA09
:1008D0000C40C0E78B4208D9002E00F0B180002107
:1008E000C6E900050846BDE8F087B3FA83F10029A0
:1008F0004BD1AB4202D3824200F2B980841A65EB3D
:10090000030301209E46002EAAD0C6E9004EA7E7A9
:100910009F40C3F12002D1404FEA174EB1FBFEF0D9
:100920001FFA87F80EFB101124FA02F29D4000FB1B
:1009300008FC2A43150C45EA0145AC4504FA03F4CA
:1009400009D97D1900F1FF3180F08F80AC4540F26C
:100950008C8002383D44A5EB0C05B5FBFEF10EFB87
:10096000115C01FB08F995B245EA0C45A94507D988
:100970007D1901F1FF3274D2A94572D902393D4483
:10098000A5EB090541EA004178E7C1F120078B405A
:1009900022FA07FC4CEA030C25FA07F44FEA1C4E36
:1009A000B4FBFEF91FFA8CF80EFB194420FA07F38A
:1009B00009FB08FA8D401D432B0C43EA0444A24571
:1009C00002FA01F200FA01F309D91CEB040409F15F
:1009D000FF3048D2A24546D9A9F102096444A4EBEC
:1009E0000A04B4FBFEF00EFB104400FB08FAADB2A3
:1009F00045EA0444A24508D91CEB040400F1FF3584
:100A00002DD2A2452BD90238644440EA0940A0FB0C
:100A10000289A4EB0A044C45C6464D4619D316D0AC
:100A20005EB1B3EB0E0264EB050404FA07F722FA99
:100A300001F31F43CC40C6E900740021BDE8F087F4
:100A4000314630460CE78C46EBE61046FFE6434560
:100A5000E6D2B8EB020E69EB0C050138E0E7284658
:100A6000D3E711468CE78146B9E7084673E70846A5
:100A700049E7ACF1020C3D4413E702383C4424E75B
:100A8000704700BF80B584B000AF3B1D00221A60E4
:100A90005A609A60254B264A1A60244B00225A60FD
:100AA000224B00229A60214B0022DA601F4B002269
:100AB0001A611E4B00225A611C4B00229A611B4B8B
:100AC0000022DA61194B00221A62184B002283F8C7
:100AD0002420164B01229A62144B002283F82C200A
:100AE000124B10225A63114B00229A630F4B0022C3
:100AF00083F83C200D4800F065FE0346002B01D032
:100B000000F005FB10237B600123BB600023FB602A
:100B10003B1D1946054800F09BFF0346002B01D002
:100B200000F0F5FA00BF1037BD4680BDF419002073
:100B30000024014080B58AB000AF786007F114034B
:100B400000221A605A609A60DA601A617B681B683A
:100B5000154A934223D1154B1B6A144A43F4007380
:100B60001362124B1B6A03F400733B613B690F4B2A
:100B7000DB690E4A43F00103D3610C4BDB6903F0E0
:100B80000103FB60FB6801237B610323BB6100233E
:100B9000FB6107F114031946054801F0C9F900BFCC
:100BA0002837BD4680BD00BF002401400038024008
:100BB0000000024080B500AF044A0021044806F05E
:100BC00073FF0346034A136000BF80BDC8B400082A
:100BD000D90B00084C1A002080B582B000AF7860B5
:100BE0006C4809F099FC002240216B4801F020FB81
:100BF0004FF4FA7007F002F801224021664801F034
:100C000017FB4FF4FA7006F0F9FF0022102162483A
:100C100001F00EFB40F2262006F0F0FF0122102129
:100C20005D4801F005FB40F2262006F0E7FF0022B8
:100C30001021594801F0FCFA01225849584805F0A2
:100C400087FF0346002B04D08E225649564809F0F0
:100C5000DDFB13225549564805F0C0FF0346002B23
:100C600004D094224F49534809F0D0FB524A5349CB
:100C7000534806F0CDFC0346002B04D09822494986
:100C80004C4809F0C3FB4C4B1B685B69023B4A4A6A
:100C90001268528902FB03F31846FFF7DDFC4FF0A0
:100CA0000002484BFFF76CFA02460B461046194605
:100CB000FFF74CFD0346444A13603F4B1B685B89BA
:100CC0001A463E4B1B6803FB02F31846FFF7C4FCB1
:100CD0004FF000023B4BFFF753FA02460B4610461B
:100CE0001946FFF733FD0346384A1360374B1B683C
:100CF000002B04D19F222B492E4809F087FB2C4959
:100D0000334806F0EDFD2A49324806F0E9FD28484F
:100D100006F054FC0346002B04D0A72221492548A5
:100D200009F074FB01222149214805F057FF0346D1
:100D3000002B04D0AB221B491E4809F067FB00BF03
:100D40001B4A6421244806F018FD0346002BF7D106
:100D5000174806F033FC0346002B04D0B422114997
:100D6000144809F053FB01220C49002005F0F0FE65
:100D70000346002B04D0B8220A490E4809F046FB6E
:100D80004FF4FA7006F03AFF4FF40071134801F087
:100D900067FAF5E7DCB3000800000240E8B300089A
:100DA000501A0020ECB3000804B400081CB400087A
:100DB000F41C002028B40008E81C0020481A002079
:100DC00030B400080000E03FEC1C0020E41C0020D0
:100DD00034B4000858B40008801C0020000402400D
:100DE00080B58AB000AF07F1140300221A605A6080
:100DF0009A60DA601A616B4BDB696A4A43F004035C
:100E0000D361684BDB6903F004033B613B69654BCD
:100E1000DB69644A43F02003D361624BDB6903F072
:100E20002003FB60FB685F4BDB695E4A43F0010314
:100E3000D3615C4BDB6903F00103BB60BB68594BBA
:100E4000DB69584A43F00203D361564BDB6903F078
:100E500002037B607B6800224FF40041524801F09E
:100E6000E7F900224FF4A871504801F0E1F900229F
:100E700041F202014E4801F0DBF901224FF400710A
:100E80004B4801F0D5F94FF480437B610023BB61EF
:100E90000123FB6107F114031946434801F048F8A8
:100EA0004FF400437B610123BB610023FB610023FE
:100EB0003B6207F1140319463B4801F039F8A223BD
:100EC0007B610023BB610123FB6107F11403194619
:100ED000364801F02DF850237B611123BB610023BC
:100EE000FB6100233B6207F1140319462F4801F010
:100EF0001FF801237B610023BB610123FB6107F124
:100F0000140319462A4801F013F802237B611123C8
:100F1000BB610123FB6101233B6207F11403194606
:100F2000234801F005F840F604437B610023BB61D0
:100F30000023FB6107F1140319461D4800F0F8FF78
:100F40004FF480537B610123BB610023FB610023CD
:100F50003B6207F114031946154800F0E9FF4FF40E
:100F600080737B610123BB610023FB6100233B6233
:100F700007F1140319460D4800F0DAFF4FF400732F
:100F80007B611123BB610023FB6102233B6207F1FC
:100F900014031946064800F0CBFF00BF2837BD46B2
:100FA00080BD00BF0038024000080240000002403F
:100FB0000004024080B483B000AF78604FF060431B
:100FC000D3F8803E03F00103002B13D04FF06043B1
:100FD000D3F8003E03F00103002B0BD000E000BF6C
:100FE0004FF060431B68002BF9D04FF060437A68E4
:100FF000D2B21A707B6818460C37BD4680BC704769
:1010000080B582B000AF78607B681846FFF7D2FFEA
:101010007B6818460837BD4680BD80B500AF00F03C
:101020009CFB00F015F8FFF7DBFE00F075F800F010
:101030005FFA00F087FA03F02FFBFFF723FD00F0C3
:1010400027FB06F0CBFCFFF7B5FD06F0F9FCFEE749
:1010500080B592B000AF07F1140334220021184686
:1010600009F0CCF93B4600221A605A609A60DA60B7
:101070001A611E4B1B6823F4C0531C4A43F40063DF
:10108000136003237B610123BB6101233B621023B7
:101090007B620223BB634FF48033FB634FF48023F6
:1010A0003B644FF400037B6407F11403184601F01E
:1010B000CFF90346002B01D000F029F80F233B6045
:1010C00003237B600023BB600023FB6000233B61A4
:1010D0003B460121184601F0EBFC0346002B01D0F2
:1010E00000F015F800BF4837BD4680BD00700040D5
:1010F00080B582B000AF78607B681B68B3F1804F29
:1011000001D100F043FB00BF0837BD4680BD80B46D
:1011100000AF72B600BFFEE780B500AF174B184AAC
:101120001A60164B4FF482725A60144B00229A6078
:10113000124B0022DA60114B00221A610F4B002281
:101140005A610E4B4FF400729A610C4B3822DA61EF
:101150000A4B00221A62094B00225A62074B0022F6
:101160009A62064B0A22DA62044801F03DFF034608
:10117000002B01D0FFF7CBFF00BF80BD241F002054
:101180000038004080B58AB000AF786007F11403E2
:1011900000221A605A609A60DA601A617B681B68E4
:1011A000204A934239D1204B5B6A1F4A43F4804363
:1011B00053621D4B5B6A03F480433B613B691A4BEE
:1011C000DB69194A43F00203D361174BDB6903F073
:1011D0000203FB60FB684FF420437B610223BB6189
:1011E0000023FB6103233B6205237B6207F11403A9
:1011F00019460E4800F09CFE4FF480437B610223A9
:10120000BB610123FB6103233B6205237B6207F182
:1012100014031946054800F08BFE00BF2837BD4671
:1012200080BD00BF0038004000380240000402408A
:1012300080B584B000AF174B5B6A164A43F0004399
:101240005362144B5B6A03F00043FB60FB68114B75
:101250001B6A104A43F0010313620E4B1B6A03F032
:101260000103BB60BB680B4B5B6A0A4A43F08053C7
:101270005362084B5B6A03F080537B607B680022FB
:101280000F216FF0010000F0E8FD00BF1037BD46F0
:1012900080BD00BF0038024080B58CB000AF7860E0
:1012A0000023FB620023BB62002279681C2000F04F
:1012B000D4FD1C2000F0EDFD1F4B5B6A1E4A43F07D
:1012C000010353621C4B5B6A03F00103FB60FB6884
:1012D00007F1100207F114031146184601F0F4FD5E
:1012E00001F0CAFDF862FB6A144AA2FB03239B0CBF
:1012F000013BBB62124B4FF080421A60104B40F230
:10130000E732DA600E4ABB6A53600D4B00221A6165
:101310000B4B00229A600A4802F00EFC0346002B99
:1013200004D1074802F050FC034600E001231846B0
:101330003037BD4680BD00BF0038024083DE1B430E
:101340007C1F002080B400AFFEE780B400AFFEE752
:1013500080B400AFFEE780B400AFFEE780B400AF1A
:10136000FEE780B400AF00BFBD4680BC7047000000
:1013700080B500AF024802F079FC00BF80BD00BF1D
:101380007C1F002080B500AF024802F02DFE00BF98
:1013900080BD00BFFC1F002080B586B000AFF860A4
:1013A000B9607A6000237B610AE0AFF300800146F8
:1013B000BB685A1CBA60CAB21A707B6901337B6180
:1013C0007A697B689A42F0DB7B6818461837BD461D
:1013D00080BD80B586B000AFF860B9607A60002348
:1013E0007B6109E0BB685A1CBA601B781846FFF79E
:1013F00007FE7B6901337B617A697B689A42F1DB86
:101400007B6818461837BD4680BD80B483B000AFF6
:1014100078604FF0FF3318460C37BD4680BC7047EC
:1014200080B483B000AF786039603B684FF40052FD
:101430005A60002318460C37BD4680BC704780B404
:1014400083B000AF7860012318460C37BD4680BCDE
:10145000704780B485B000AFF860B9607A6000234F
:1014600018461437BD4680BC7047000080B586B072
:1014700000AF7860144A154BD31A7B617B693B61DE
:10148000134B1B68002B02D1114B124A1A60104BF0
:101490001A687B6813443A699A4207D208F076FFCB
:1014A00003460C221A604FF0FF3309E0084B1B681B
:1014B000FB60074B1A687B681344054A1360FB689E
:1014C00018461837BD4680BD00800020000400008B
:1014D000A8000020E827002080B400AF034B4FF0A5
:1014E00000629A6000BFBD4680BC704700ED00E01E
:1014F00080B500AF114B124A1A60104B4FF4E13225
:101500005A600E4B00229A600C4B0022DA600B4BA3
:1015100000221A61094B0C225A61084B00229A6181
:10152000064B0022DA61054802F010FD0346002B4D
:1015300001D0FFF7ECFD00BF80BD00BFBC1F002045
:101540000038014080B500AF114B124A1A60104BB1
:101550004FF4E1325A600E4B00229A600C4B00228D
:10156000DA600B4B00221A61094B0C225A61084BBE
:1015700000229A61064B0022DA61054802F0E6FC7F
:101580000346002B01D0FFF7C2FD00BF80BD00BFA6
:10159000FC1F00200044004080B58CB000AF786094
:1015A00007F11C0300221A605A609A60DA601A611F
:1015B0007B681B68324A934229D1324B1B6A314AFD
:1015C00043F4804313622F4B1B6A03F48043BB61D7
:1015D000BB692C4BDB692B4A43F00103D361294BD8
:1015E000DB6903F001037B617B694FF4C063FB613E
:1015F00002233B6200237B620323BB620723FB625F
:1016000007F11C031946204800F092FC34E07B6887
:101610001B681E4A93422FD11A4B5B6A194A43F446
:1016200000335362174B5B6A03F400333B613B6941
:10163000144BDB69134A43F00103D361114BDB699F
:1016400003F00103FB60FB680C23FB6102233B6298
:1016500000237B620323BB620723FB6207F11C03A9
:101660001946094800F064FC00220521262000F0FC
:10167000F4FB262000F00DFC00BF3037BD4680BDD6
:1016800000380140003802400000024000440040A1
:1016900080B500AF0D4B0E4A1A600C4B08225A6001
:1016A0000A4B02229A60094B02221A61074B002260
:1016B0009A61064B00221A62044800F0EAFD0346D4
:1016C000002B01D0FFF723FD00BF80BD3C20002090
:1016D000005C004080B485B000AF78607B681B6818
:1016E000094A93420BD1094B5B6A084A43F4000351
:1016F0005362064B5B6A03F40003FB60FB6800BFA8
:101700001437BD4680BC7047005C00400038024082
:10171000002103E00B4B5B58435004310A480B4B4C
:1017200042189A42F6D30A4A02E0002342F8043BE8
:10173000084B9A42F9D3FFF7CFFE08F02DFEFFF7D2
:101740006CFC704738B60008000000208C000020B8
:101750008C000020E4270020FEE780B582B000AFB7
:101760000023FB71032000F06DFB0020FFF794FDC8
:101770000346002B02D00123FB7101E0FFF758FD67
:10178000FB7918460837BD4680BD000080B400AF25
:10179000054B1A68054B1B681344034A136000BFCE
:1017A000BD4680BC704700BF2823002008000020F1
:1017B00080B400AF024B1B681846BD4680BC704722
:1017C0002823002080B58EB000AF7860002387F812
:1017D000373000233B630023FB627B68002B01D181
:1017E000012327E17B681B69002B7B68DB6C002BE6
:1017F00015D17B6800221A657B68002283F8482097
:101800008E4B1B6A8D4A43F0010313628B4B1B6A9C
:1018100003F00103BB60BB687868FFF78BF97B6856
:10182000DB6C03F01003002B40F0FF807B68DB6C67
:1018300023F4885323F0020343F002027B68DA6446
:101840007F4B5B6823F440327B685B687C491343C1
:101850004B607B68DA687B685B691A437B6893F846
:101860003C3019464FF400733B623B6A93FAA3F392
:10187000FB61FB69B3FA83F3DBB201FA03F31A43AA
:101880007B681B6A1A437B6893F82430194602234D
:10189000BB62BB6A93FAA3F37B627B6AB3FA83F3FE
:1018A000DBB201FA03F31343FA6A1343FB627B686A
:1018B0005B6B102B07D07B685A6B7B689B6B134369
:1018C000FA6A1343FB627B681B681B6803F04003E2
:1018D000402B4FD07B689B69FA6A1343FB627B689D
:1018E0009A687B68DB6913437A681269B2F5807F76
:1018F00003D07A681269012A02D14FF4807200E0A5
:10190000002213433A6B13433B637B6893F82C30FC
:10191000012B25D17B6893F82430002B14D17B68F0
:101920001B6B013B4FF46042BA61BA6992FAA2F2B2
:101930007A617A69B2FA82F2D2B2934043F40063D8
:101940003A6B13433B630BE07B68DB6C43F0200294
:101950007B68DA647B681B6D43F001027B681A6563
:101960007B681B685A68374B13407A681268396B7A
:101970000B4353607B681B689A68334B13407A684B
:101980001268F96A0B4393607B681B69B3F5807F2B
:1019900003D07B681B69012B19D17B681B681B6B0B
:1019A00023F0F8717B689B6A013B4FF0F8723A6153
:1019B0003A6992FAA2F2FA60FA68B2FA82F2D2B204
:1019C00003FA02F27B681B680A431A6307E07B682C
:1019D0001B681A6B7B681B6822F0F8721A637B68BD
:1019E0001B689A68194B1340FA6A9A420BD17B68BC
:1019F00000221A657B68DB6C23F0030343F00102CD
:101A00007B68DA6414E07B68DB6C23F0120343F03C
:101A100010027B68DA647B681B6D43F001027B680F
:101A20001A65012387F8373002E0012387F8373041
:101A300097F8373018463837BD4680BD0038024029
:101A400000270140FF16FCFC89F1FFC0FEFF80BFAC
:101A500080B485B000AF786039600023FB73002349
:101A6000BB607B6893F84830012B01D1022334E13D
:101A70007B68012283F848203B685B68062B1CD8F2
:101A80007B681B68196C3B685A6813469B001344BB
:101A9000053B1F2202FA03F3DB4319403B68186839
:101AA0003B685A6813469B001344053B00FA03F257
:101AB0007B681B680A431A647EE03B685B680C2BFA
:101AC0001CD87B681B68D96B3B685A6813469B001F
:101AD0001344233B1F2202FA03F3DB4319403B6804
:101AE00018683B685A6813469B001344233B00FA6E
:101AF00003F27B681B680A43DA635DE03B685B685E
:101B0000122B1CD87B681B68996B3B685A6813467C
:101B10009B001344413B1F2202FA03F3DB431940AD
:101B20003B6818683B685A6813469B001344413B66
:101B300000FA03F27B681B680A439A633CE03B6847
:101B40005B68182B1CD87B681B68596B3B685A680C
:101B500013469B0013445F3B1F2202FA03F3DB434F
:101B600019403B6818683B685A6813469B00134449
:101B70005F3B00FA03F27B681B680A435A631BE071
:101B80007B681B68196B3B685A6813469B001344BB
:101B90007D3B1F2202FA03F3DB4319403B681868C0
:101BA0003B685A6813469B0013447D3B00FA03F2DE
:101BB0007B681B680A431A633B681B68092B1AD8A9
:101BC0007B681B6859693B681A6813465B001344BD
:101BD000072202FA03F3DB4319403B6898683B682D
:101BE0001A6813465B00134400FA03F27B681B6813
:101BF0000A435A6142E03B681B68132B1CD87B6880
:101C00001B6819693B681A6813465B0013441E3B46
:101C1000072202FA03F3DB4319403B6898683B68EC
:101C20001A6813465B0013441E3B00FA03F27B68FC
:101C30001B680A431A6121E03B681B681A2B1CD8F9
:101C40007B681B68D9683B681A6813465B001344BD
:101C50003C3B072202FA03F3DB4319403B689868D8
:101C60003B681A6813465B0013443C3B00FA03F2DE
:101C70007B681B680A43DA6000E000BF3B681B68B2
:101C8000102B03D03B681B68112B21D1154B5B68CF
:101C900003F40003002B1BD1124B5B68114A43F481
:101CA000000353603B681B68102B11D10E4B1B685F
:101CB0000E4AA2FB03239A0C13469B0013445B00BD
:101CC000BB6002E0BB68013BBB60BB68002BF9D185
:101CD0007B68002283F84820FB7B18461437BD46FA
:101CE00080BC7047002701400000002083DE1B43BA
:101CF00080B485B000AF78607B6803F00703FB60B9
:101D00000C4BDB68BB60BA684FF6FF031340BB6047
:101D1000FB681A02BB68134343F0BF6343F400330C
:101D2000BB60044ABB68D36000BF1437BD4680BCAB
:101D3000704700BF00ED00E080B400AF044BDB68EB
:101D40001B0A03F007031846BD4680BC704700BF5E
:101D500000ED00E080B483B000AF0346FB7197F95B
:101D60000730002B0BDBFB7903F01F02064997F9C4
:101D700007305B09012000FA02F241F8232000BF7E
:101D80000C37BD4680BC704700E100E080B483B0F2
:101D900000AF03463960FB7197F90730002B0ADB6F
:101DA0003B68DAB20C4997F907301201D2B20B4402
:101DB00083F800230AE03B68DAB20849FB7903F0B4
:101DC0000F03043B1201D2B20B441A7600BF0C374A
:101DD000BD4680BC704700BF00E100E000ED00E0C0
:101DE00080B489B000AFF860B9607A60FB6803F036
:101DF0000703FB61FB69C3F10703042B28BF04231E
:101E0000BB61FB690433062B02D9FB69033B00E08D
:101E100000237B614FF0FF32BB6902FA03F3DA4320
:101E2000BB681A407B699A404FF0FF317B6901FA29
:101E300003F3D9437B680B40134318462437BD4650
:101E400080BC704780B582B000AF78607868FFF7DB
:101E50004FFF00BF0837BD4680BD80B586B000AFDC
:101E60000346B9607A60FB7300237B61FFF764FF70
:101E700078617A68B9687869FFF7B2FF024697F926
:101E80000F3011461846FFF781FF00BF1837BD46D7
:101E900080BD80B582B000AF0346FB7197F9073073
:101EA0001846FFF757FF00BF0837BD4680BD80B515
:101EB00084B000AF78600023FB737B6893F8213017
:101EC000DBB2022B05D07B6804229A630123FB73EB
:101ED00029E07B681B681A687B681B6822F00E0289
:101EE0001A607B681B681A687B681B6822F0010215
:101EF0001A607B681B6C03F01C027B68DB6B0121A2
:101F000001FA02F25A607B68012283F821207B6883
:101F1000002283F820207B685B6B002B03D07B685A
:101F20005B6B78689847FB7B18461037BD4680BDD1
:101F300080B487B000AF7860396000237B610023F4
:101F4000FB6000233B6154E13B681A6801217B6917
:101F500001FA03F31340FB60FB68002B00F046819D
:101F60003B685B68012B0BD03B685B68022B07D09A
:101F70003B685B68112B03D03B685B68122B30D148
:101F80007B689B683B617B695B00032202FA03F379
:101F9000DB433A6913403B613B68DA687B695B006D
:101FA00002FA03F33A6913433B617B683A699A602A
:101FB0007B685B683B6101227B6902FA03F3DB43C8
:101FC0003A6913403B613B685B681B0903F00102FF
:101FD0007B6902FA03F33A6913433B617B683A6910
:101FE0005A607B68DB683B617B695B00032202FA15
:101FF00003F3DB433A6913403B613B689A687B69B2
:102000005B0002FA03F33A6913433B617B683A6968
:10201000DA603B685B68022B03D03B685B68122B7D
:1020200023D17B69DA087B68083253F822303B61A0
:102030007B6903F007039B000F2202FA03F3DB43E3
:102040003A6913403B613B681A697B6903F00703F7
:102050009B0002FA03F33A6913433B617B69DA0898
:102060007B680832396943F822107B681B683B6142
:102070007B695B00032202FA03F3DB433A691340F6
:102080003B613B685B6803F003027B695B0002FA1B
:1020900003F33A6913433B617B683A691A603B6812
:1020A0005B6803F08053002B00F0A080584B1B6A44
:1020B000574A43F001031362554B1B6A03F00103B7
:1020C000BB60BB68534A7B699B08023352F82330DC
:1020D0003B617B6903F003039B000F2202FA03F3C9
:1020E000DB433A6913403B617B684B4A934219D00A
:1020F0007B684A4A934213D07B68494A93420DD089
:102100007B68484A934207D07B68474A934201D193
:10211000042308E0052306E0032304E0022302E091
:10212000012300E000237A6902F003029200934049
:102130003A6913433B6137497B699B0802333A692B
:1021400041F82320394B1B683B61FB68DB433A694C
:1021500013403B613B685B6803F48033002B03D082
:102160003A69FB6813433B61304A3B6913602F4B6C
:102170005B683B61FB68DB433A6913403B613B684A
:102180005B6803F40033002B03D03A69FB68134308
:102190003B61264A3B695360244B9B683B61FB686B
:1021A000DB433A6913403B613B685B6803F480138F
:1021B000002B03D03A69FB6813433B611B4A3B6920
:1021C00093601A4BDB683B61FB68DB433A69134061
:1021D0003B613B685B6803F40013002B03D03A6952
:1021E000FB6813433B61114A3B69D3607B69013350
:1021F0007B613B681A687B6922FA03F3002B7FF44A
:10220000A3AE00BF00BF1C37BD4680BC704700BFF7
:10221000003802400000014000000240000402407B
:1022200000080240000C024000100240000401407F
:1022300080B483B000AF78600B467B8013467B7020
:102240007B78002B03D07A887B689A6103E07B88D7
:102250001A047B689A6100BF0C37BD4680BC70478A
:1022600080B485B000AF78600B467B807B685B698B
:10227000FB607A88FB6813401A04FB68D9437B88AB
:102280000B401A437B689A6100BF1437BD4680BC7F
:102290007047F0B58BB006AF78607B68002B01D13A
:1022A0000123D0E07B6893F8A932DBB2002B06D182
:1022B0007B68002283F8A8227868FFF70BFA7B6816
:1022C000032283F8A9227B681B68184602F0AAF94A
:1022D0000023FB734CE0FB7B79685A1C13469B0080
:1022E0001344DB000B44013301221A70FB7B796835
:1022F0005A1C13469B001344DB000B44FA7B1A70F4
:10230000FA7BFB7B98B2796813469B001344DB0091
:102310000B44363302461A80FB7B79685A1C1346FD
:102320009B001344DB000B44033300221A70FA7B3A
:10233000796813469B001344DB000B4438330022BA
:102340001A60FA7B796813469B001344DB000B4448
:102350003C3300221A60FA7B796813469B001344D1
:10236000DB000B44403300221A60FB7B0133FB731C
:10237000FA7B7B685B689A42ADD30023FB7344E031
:10238000FA7B796813469B001344DB000B4403F28D
:10239000691300221A70FA7B796813469B00134474
:1023A000DB000B4403F5B473FA7B1A70FA7B79688F
:1023B00013469B001344DB000B4403F26B13002213
:1023C0001A70FA7B796813469B001344DB000B44B8
:1023D00003F5BC7300221A60FA7B796813469B00F0
:1023E0001344DB000B4403F5BE7300221A60FA7B32
:1023F000796813469B001344DB000B4403F5C0735C
:1024000000221A60FB7B0133FB73FA7B7B685B68FD
:102410009A42B5D37B681B683B607E686D4606F1C7
:1024200010040FCC0FC523682B60331D0ECB38680A
:1024300002F012F97B68002283F824207B680122D5
:1024400083F8A922002318461437BD46F0BD0000CA
:1024500080B588B000AF78607B68002B01D1012384
:102460001DE3944B9B6803F00C03BB61914B9B688D
:1024700003F480337B617B681B6803F00103002B4E
:102480007BD0BB69082B06D0BB690C2B0FD17B69B5
:10249000B3F5803F0BD1874B1B6803F40033002B4F
:1024A0006AD07B685B68002B66D10123F7E27B680A
:1024B0005B68012B06D17F4B1B687E4A43F4803357
:1024C00013602DE07B685B68002B0CD1794B1B6897
:1024D000784A23F480331360764B1B68754A23F4E3
:1024E000802313601CE07B685B68052B0CD1714B6B
:1024F0001B68704A43F4802313606E4B1B686D4A5F
:1025000043F4803313600BE06A4B1B68694A23F481
:1025100080331360674B1B68664A23F48023136083
:102520007B685B68002B13D0FFF742F9386108E045
:10253000FFF73EF902463B69D31A642B01D9032306
:10254000ADE25C4B1B6803F40033002BF0D014E0C9
:10255000FFF72EF9386108E0FFF72AF902463B69D8
:10256000D31A642B01D9032399E2524B1B6803F45D
:102570000033002BF0D100E000BF7B681B6803F044
:102580000203002B5AD0BB69042B05D0BB690C2B6E
:1025900019D17B69002B16D1464B1B6803F002034F
:1025A000002B05D07B68DB68012B01D0012376E28C
:1025B000404B5B6823F4F8527B681B691B023D4962
:1025C00013434B603AE07B68DB68002B20D03A4B2A
:1025D00001221A60FFF7ECF8386108E0FFF7E8F82D
:1025E00002463B69D31A022B01D9032357E2314B30
:1025F0001B6803F00203002BF0D02E4B5B6823F422
:10260000F8527B681B691B022A4913434B6015E093
:10261000294B00221A60FFF7CBF8386108E0FFF77A
:10262000C7F802463B69D31A022B01D9032336E2CD
:10263000204B1B6803F00203002BF0D17B681B6862
:1026400003F01003002B00F0B880BB69002B70D1A1
:10265000184B1B6803F40073002B05D07B689B6943
:10266000002B01D101231AE27B681A6A114B5B68C7
:1026700003F460439A4221D97B681B6A184600F034
:1026800053FC0346002B01D0012308E2094B5B6891
:1026900023F460427B681B6A064913434B60054B79
:1026A0005B6823F07F427B68DB691B0601491343AB
:1026B0004B6020E00038024000004742A44B5B68BA
:1026C00023F460427B681B6AA14913434B60A04B13
:1026D0005B6823F07F427B68DB691B069C491343E0
:1026E0004B607B681B6A184600F01EFC0346002BFB
:1026F00001D00123D3E17B681B6A5B0B01334FF4EC
:10270000004202FA03F3924A9268120902F00F02A1
:1027100090498A5CD340904A1360904B1B681846DE
:10272000FEF7BAFD0346FB73FB7B002B45D0FB7B1A
:10273000B5E17B689B69002B29D0894B01221A6087
:10274000FFF736F8386108E0FFF732F802463B69D8
:10275000D31A022B01D90323A1E17D4B1B6803F49B
:102760000073002BF0D07A4B5B6823F460427B68E7
:102770001B6A774913434B60754B5B6823F07F42BC
:102780007B68DB691B06724913434B6015E0744B91
:1027900000221A60FFF70CF8386108E0FFF708F82C
:1027A00002463B69D31A022B01D9032377E1684B18
:1027B0001B6803F40073002BF0D17B681B6803F0E7
:1027C0000803002B30D07B685B69002B16D0654B6B
:1027D00001221A60FEF7ECFF386108E0FEF7E8FF1F
:1027E00002463B69D31A022B01D9032357E1584B08
:1027F0005B6B03F00203002BF0D015E0594B002275
:102800001A60FEF7D5FF386108E0FEF7D1FF0246F7
:102810003B69D31A022B01D9032340E14C4B5B6B7C
:1028200003F00203002BF0D17B681B6803F0040364
:10283000002B00F0B5800023FB77454B5B6A03F06B
:102840008053002B0DD1424B5B6A414A43F08053C9
:1028500053623F4B5B6A03F08053BB60BB6801234C
:10286000FB77414B1B6803F48073002B18D13E4B60
:102870001B683D4A43F480731360FEF799FF38618B
:1028800008E0FEF795FF02463B69D31A642B01D995
:10289000032304E1344B1B6803F48073002BF0D056
:1028A0007B689B68012B06D1294B5B6B284A43F45C
:1028B000807353632DE07B689B68002B0CD1244B05
:1028C0005B6B234A23F480735363214B5B6B204A79
:1028D00023F4806353631CE07B689B68052B0CD159
:1028E0001B4B5B6B1A4A43F480635363184B5B6B5F
:1028F000174A43F4807353630BE0154B5B6B144A28
:1029000023F480735363124B5B6B114A23F480638F
:1029100053637B689B68002B15D0FEF749FF386135
:102920000AE0FEF745FF02463B69D31A41F28832BE
:10293000934201D90323B2E0054B5B6B03F40073B0
:10294000002BEED023E0FEF733FF386119E000BF23
:1029500000380240F8B40008000000200400002005
:10296000200047428006474200700040FEF720FFEB
:1029700002463B69D31A41F28832934201D90323BC
:102980008DE0494B5B6B03F40073002BEED1FB7FB2
:10299000012B05D1444B5B6A434A23F080535362B9
:1029A0007B685B6A002B79D0BB690C2B56D07B68A7
:1029B0005B6A022B3BD13D4B00221A60FEF7F8FE0A
:1029C000386108E0FEF7F4FE02463B69D31A022B99
:1029D00001D9032363E0344B1B6803F00073002B21
:1029E000F0D1314B9B6823F47D027B68996A7B6848
:1029F000DB6A19437B681B6B0B432B4913438B60CA
:102A00002A4B01221A60FEF7D3FE386108E0FEF778
:102A1000CFFE02463B69D31A022B01D903233EE0C5
:102A2000214B1B6803F00073002BF0D036E01F4BE6
:102A300000221A60FEF7BCFE386108E0FEF7B8FE1F
:102A400002463B69D31A022B01D9032327E0164B18
:102A50001B6803F00073002BF0D11FE07B685B6AFA
:102A6000012B01D101231AE00F4B9B687B617B692D
:102A700003F480327B689B6A9A420DD17B6903F430
:102A800070127B68DB6A9A4206D17B6903F44002CC
:102A90007B681B6B9A4201D0012300E0002318469B
:102AA0002037BD4680BD00BF00380240600047426D
:102AB00080B584B000AF786039607B68002B01D1AD
:102AC00001231AE18F4B1B6803F001033A689A4215
:102AD00019D93B68012B05D18A4B1B68894A43F001
:102AE00004031360874B1B6823F0010285493B6890
:102AF00013430B60834B1B6803F001033A689A424F
:102B000001D00123F9E07B681B6803F00203002B6E
:102B100008D07D4B9B6823F0F0027B689B687A4964
:102B200013438B607B681B6803F00103002B00F0EC
:102B30008E807B685B68022B07D1734B1B6803F4A4
:102B40000033002B21D10123D7E07B685B68032B86
:102B500007D16D4B1B6803F00073002B15D10123C7
:102B6000CBE07B685B68012B07D1674B1B6803F0E8
:102B70000203002B09D10123BFE0634B1B6803F460
:102B80000073002B01D10123B7E05F4B9B6823F05A
:102B900003027B685B685C4913438B60FEF708FEA9
:102BA000F8607B685B68022B12D10AE0FEF700FE3A
:102BB0000246FB68D31A41F28832934201D90323BB
:102BC0009BE0514B9B6803F00C03082BEED13EE0D9
:102BD0007B685B68032B12D10AE0FEF7E9FD024631
:102BE000FB68D31A41F28832934201D9032384E06F
:102BF000454B9B6803F00C030C2BEED127E07B6860
:102C00005B68012B1DD10AE0FEF7D2FD0246FB688E
:102C1000D31A41F28832934201D903236DE03A4B33
:102C20009B6803F00C03042BEED110E0FEF7C0FD0F
:102C30000246FB68D31A41F28832934201D903233A
:102C40005BE0314B9B6803F00C03002BEED12D4B66
:102C50001B6803F001033A689A4219D23B68012BC2
:102C600005D1284B1B68274A43F004031360254B0A
:102C70001B6823F0010223493B6813430B60214B7F
:102C80001B6803F001033A689A4201D0012334E043
:102C90007B681B6803F00403002B08D01A4B9B6869
:102CA00023F4E0627B68DB68174913438B607B6821
:102CB0001B6803F00803002B09D0134B9B6823F417
:102CC00060527B681B69DB000F4913438B6000F087
:102CD00023F802460C4B9B681B0903F00F030B49BA
:102CE000CB5C22FA03F30A4A13600A4B1B681846AE
:102CF000FEF7D2FA0346FB72FB7A18461037BD4640
:102D000080BD00BF003C024000380240F8B400081B
:102D10000000002004000020B0B586B000AF4D4B8D
:102D20009B68FB60FB6803F00C030C2B0CD00C2B96
:102D30007CD8042B02D0082B03D077E0464B3B61B4
:102D400082E0464B3B617FE0FB689B0C03F00F0386
:102D5000434AD35CBB60FB689B0D03F00303013364
:102D60007B603C4B9B6803F48033002B1AD0BB681C
:102D70001A464FF00003394901FB03F0002101FB23
:102D800002F144183549A2FB0101631819467B681A
:102D90001A464FF00003FDF7F9FC02460B461346B6
:102DA0007B6140E0BB681C464FF000052046294689
:102DB0004FF000024FF000034B0143EAD0634201A1
:102DC00010461946001B61EB05014FF000024FF061
:102DD00000038B0143EA90638201121A63EB010343
:102DE0004FF000004FF00001D90041EA5271D000CD
:102DF00002460B46121945EB03034FF000004FF05B
:102E00000001990241EA9251900202460B46104697
:102E100019467B681A464FF00003FDF7B7FC0246DF
:102E20000B4613467B617B693B610DE0094B5B6898
:102E30005B0B03F007033B603B6801334FF4004238
:102E400002FA03F33B6100BF3B6918461837BD46E1
:102E5000B0BD00BF003802400024F40000366E010F
:102E6000ECB4000880B400AF024B1B681846BD46A6
:102E700080BC70470000002080B500AFFFF7F2FF74
:102E80000246054B9B681B0A03F007030349CB5C12
:102E900022FA03F3184680BD0038024008B5000846
:102EA00080B500AFFFF7DEFF0246054B9B68DB0AEB
:102EB00003F007030349CB5C22FA03F3184680BDF5
:102EC0000038024008B5000880B483B000AF7860D5
:102ED00039607B680F221A60114B9B6803F0030274
:102EE0007B685A600E4B9B6803F0F0027B689A6027
:102EF0000B4B9B6803F4E0627B68DA60084B9B68CD
:102F0000DB0803F4E0627B681A61064B1B6803F080
:102F100001023B681A6000BF0C37BD4680BC704799
:102F200000380240003C024080B487B000AF7860B7
:102F300000233B61294B9B6803F0F003002B2CD14D
:102F4000264B5B6A03F08053002B05D0244B1B6893
:102F500003F4C0537B6116E0204B5B6A1F4A43F0C9
:102F6000805353621D4B5B6A03F08053FB60FB6828
:102F70001B4B1B6803F4C0537B61184B5B6A174AF9
:102F800023F0805353627B69B3F5C05F05D17B6842
:102F9000B3F5404F01D101233B613B69012B05D1C2
:102FA000104B1B680F4A43F0040313600D4B1B6862
:102FB00023F001020B493B6913430B60094B1B686B
:102FC00003F001033A699A4201D0012300E0002393
:102FD00018461C37BD4680BC704700BF0038024011
:102FE00000700040003C024080B582B000AF7860C5
:102FF0007B68002B01D101237BE07B685B6A002B9F
:1030000008D17B685B68B3F5827F09D07B680022BA
:10301000DA6105E07B6800221A617B6800225A6150
:103020007B6800229A627B6893F85130DBB2002BF8
:1030300006D17B68002283F850207868FEF7A2F85A
:103040007B68022283F851207B681B681A687B68C2
:103050001B6822F040021A607B685B6803F482728E
:103060007B689B6803F404431A437B68DB6803F4C2
:1030700000631A437B681B6903F002031A437B68F1
:103080005B6903F001031A437B689B6903F40073D7
:103090001A437B68DB6903F038031A437B681B6AB9
:1030A00003F0800342EA03017B689B6A03F4005249
:1030B0007B681B680A431A607B689B691B0C03F0E2
:1030C00004017B685B6A03F010027B681B680A439B
:1030D0005A607B681B68DA697B681B6822F40062AF
:1030E000DA617B6800225A657B68012283F85120EF
:1030F000002318460837BD4680BD80B588B000AFB4
:10310000F860B9603B601346FB800023FB77FB68E7
:1031100093F85030012B01D1022326E1FB680122F4
:1031200083F85020FEF744FBB861FB88FB82FB6804
:1031300093F85130DBB2012B02D00223FB770BE175
:10314000BB68002B02D0FB88002B02D10123FB7748
:1031500002E1FB68032283F85120FB6800225A65D4
:10316000FB68BA681A63FB68FA889A86FB68FA8873
:10317000DA86FB6800229A63FB6800229A87FB6864
:103180000022DA87FB6800225A64FB6800221A6476
:10319000FB689B68B3F5004F0FD1FB681B681A688A
:1031A000FB681B6822F040021A60FB681B681A6803
:1031B000FB681B6842F480421A60FB681B681B684E
:1031C00003F04003402B07D0FB681B681A68FB68BC
:1031D0001B6842F040021A60FB68DB68B3F5006FC1
:1031E0004BD1FB685B68002B02D0FB8A012B3ED1E0
:1031F000FB681B6B1A88FB681B68DA60FB681B6B3B
:103200009A1CFB681A63FB68DB8E9BB2013B9AB287
:10321000FB68DA862BE0FB681B689B6803F00203FF
:10322000022B12D1FB681B6B1A88FB681B68DA60E3
:10323000FB681B6B9A1CFB681A63FB68DB8E9BB2F6
:10324000013B9AB2FB68DA8611E0FEF7B1FA02465A
:10325000BB69D31A3A689A4203D83B68B3F1FF3F7F
:1032600002D13B68002B02D10323FB7774E0FB689B
:10327000DB8E9BB2002BCED14CE0FB685B68002B51
:1032800002D0FB8A012B40D1FB681A6BFB681B68DC
:103290000C3312781A70FB681B6B5A1CFB681A639C
:1032A000FB68DB8E9BB2013B9AB2FB68DA862CE0AE
:1032B000FB681B689B6803F00203022B13D1FB68B9
:1032C0001A6BFB681B680C3312781A70FB681B6B57
:1032D0005A1CFB681A63FB68DB8E9BB2013B9AB2F7
:1032E000FB68DA8611E0FEF763FA0246BB69D31A7F
:1032F0003A689A4203D83B68B3F1FF3F02D13B687A
:10330000002B02D10323FB7726E0FB68DB8E9BB208
:10331000002BCDD1BA693968F86800F0CBFB0346C1
:10332000002B02D0FB6820225A65FB689B68002BAB
:103330000AD100233B61FB681B68DB683B61FB68CB
:103340001B689B683B613B69FB685B6D002B02D08F
:103350000123FB7700E000BFFB68012283F85120C6
:10336000FB68002283F85020FB7F18462037BD46BB
:1033700080BD80B588B002AFF860B9603B6013468D
:10338000FB800023FB75FB685B68B3F5827F12D17D
:10339000FB689B68002B0ED1FB68042283F8512048
:1033A000FA883B6800931346BA68B968F86800F079
:1033B000F1F80346EAE0FB6893F85030012B01D1A5
:1033C0000223E3E0FB68012283F85020FEF7F0F9C6
:1033D0003861FB6893F85130DBB2012B02D0022335
:1033E000FB75CAE0BB68002B02D0FB88002B02D122
:1033F0000123FB75C1E0FB68042283F85120FB68C0
:1034000000225A65FB68BA689A63FB68FA889A8753
:10341000FB68FA88DA87FB6800221A63FB680022DF
:103420009A86FB680022DA86FB6800221A64FB6831
:1034300000225A64FB689B68B3F5004F0FD1FB680C
:103440001B681A68FB681B6822F040021A60FB6860
:103450001B681A68FB681B6822F480421A60FB68CC
:103460001B681B6803F04003402B07D0FB681B68F8
:103470001A68FB681B6842F040021A60FB68DB6850
:10348000002B62D12EE0FB681B689B6803F00103F0
:10349000012B15D1FB681B6803F10C02FB689B6BC9
:1034A0001278D2B21A70FB689B6B5A1CFB689A6345
:1034B000FB68DB8F9BB2013B9AB2FB68DA8711E0B5
:1034C000FEF776F902463B69D31A3A689A4203D866
:1034D0003B68B3F1FF3F02D13B68002B02D10323CD
:1034E000FB754AE0FB68DB8F9BB2002BCBD131E050
:1034F000FB681B689B6803F00103012B13D1FB6879
:103500001B68DA68FB689B6B92B21A80FB689B6B46
:103510009A1CFB689A63FB68DB8F9BB2013B9AB2F3
:10352000FB68DA8711E0FEF743F902463B69D31ADC
:103530003A689A4203D83B68B3F1FF3F02D13B6837
:10354000002B02D10323FB7517E0FB68DB8F9BB2D6
:10355000002BCDD13A693968F86800F045FA034686
:10356000002B02D0FB6820225A65FB685B6D002BA4
:1035700002D00123FB7500E000BFFB68012283F845
:103580005120FB68002283F85020FB7D1846183735
:10359000BD4680BD80B58CB000AFF860B9607A6080
:1035A0007B800123FB62002387F82B30FB6893F8B4
:1035B0005030012B01D102238AE1FB68012283F8FC
:1035C0005020FEF7F5F87862FB6893F8513087F8E1
:1035D0002330FB685B68FB617B887B8397F8233033
:1035E000012B0FD0FB69B3F5827F07D1FB689B6885
:1035F000002B03D197F82330042B03D0022387F844
:103600002B305BE1BB68002B05D07B68002B02D020
:103610007B88002B03D1012387F82B304EE1FB6818
:1036200093F85130DBB2042B03D0FB68052283F8FA
:103630005120FB6800225A65FB687A689A63FB6830
:103640007A88DA87FB687A889A87FB68BA681A638F
:10365000FB687A88DA86FB687A889A86FB6800229B
:103660001A64FB6800225A64FB681B681B6803F03D
:103670004003402B07D0FB681B681A68FB681B6877
:1036800042F040021A60FB68DB68B3F5006F78D146
:10369000FB685B68002B02D07B8B012B66D1FB683B
:1036A0001B6B1A88FB681B68DA60FB681B6B9A1C33
:1036B000FB681A63FB68DB8E9BB2013B9AB2FB6826
:1036C000DA8653E0FB681B689B6803F00203022B59
:1036D0001BD1FB68DB8E9BB2002B16D0FB6A012B43
:1036E00013D1FB681B6B1A88FB681B68DA60FB68E8
:1036F0001B6B9A1CFB681A63FB68DB8E9BB2013B59
:103700009AB2FB68DA860023FB62FB681B689B6841
:1037100003F00103012B19D1FB68DB8F9BB2002B57
:1037200014D0FB681B68DA68FB689B6B92B21A8046
:10373000FB689B6B9A1CFB689A63FB68DB8F9BB2F0
:10374000013B9AB2FB68DA870123FB62FEF730F88F
:1037500002467B6AD31ABA6B9A4207D8BB6BB3F1A5
:10376000FF3F03D0032387F82B30A7E0FB68DB8EF5
:103770009BB2002BA6D1FB68DB8F9BB2002BA1D1A3
:103780007CE0FB685B68002B02D07B8B012B6BD14C
:10379000FB681A6BFB681B680C3312781A70FB68A5
:1037A0001B6B5A1CFB681A63FB68DB8E9BB2013BE8
:1037B0009AB2FB68DA8657E0FB681B689B6803F0E7
:1037C0000203022B1CD1FB68DB8E9BB2002B17D0AF
:1037D000FB6A012B14D1FB681A6BFB681B680C3366
:1037E00012781A70FB681B6B5A1CFB681A63FB6823
:1037F000DB8E9BB2013B9AB2FB68DA860023FB6248
:10380000FB681B689B6803F00103012B19D1FB685F
:10381000DB8F9BB2002B14D0FB681B68DA68FB6857
:103820009B6BD2B21A70FB689B6B5A1CFB689A6345
:10383000FB68DB8F9BB2013B9AB2FB68DA870123FE
:10384000FB62FDF7B5FF02467B6AD31ABA6B9A4258
:1038500003D8BB6BB3F1FF3F02D1BB6B002B03D18D
:10386000032387F82B3029E0FB68DB8E9BB2002B0B
:10387000A2D1FB68DB8F9BB2002B9DD17A6AB96B1A
:10388000F86800F017F90346002B06D0012387F8EB
:103890002B30FB6820225A6510E0FB689B68002BE8
:1038A0000BD100237B61FB681B68DB687B61FB68D5
:1038B0001B689B687B617B6900E000BFFB6801229D
:1038C00083F85120FB68002283F8502097F82B30B2
:1038D00018463037BD4680BD80B588B000AFF8606F
:1038E000B9603B601346FB71FDF762FF0246BB6A9D
:1038F0009B1A3A681344FB61FDF75AFFB861394BD4
:103900001B685B011B0DFA6902FB03F37B6154E04A
:103910003B68B3F1FF3F50D0FDF74AFF0246BB6959
:10392000D31AFA699A4202D9FB69002B3DD1FB6890
:103930001B685A68FB681B6822F0E0025A60FB684B
:103940005B68B3F5827F11D1FB689B68B3F5004FCC
:1039500004D0FB689B68B3F5806F07D1FB681B68D8
:103960001A68FB681B6822F040021A60FB689B6AB9
:10397000B3F5005F0FD1FB681B681A68FB681B6812
:1039800022F400521A60FB681B681A68FB681B6807
:1039900042F400521A60FB68012283F85120FB6850
:1039A000002283F85020032317E07B69002B01D10C
:1039B0000023FB617B69013B7B61FB681B689A68A4
:1039C000BB681340BA689A420CBF01230023DBB2E4
:1039D0001A46FB799A429BD1002318462037BD46F0
:1039E00080BD00BF0000002080B586B002AFF86047
:1039F000B9607A60FB685B68B3F5827F11D1FB68C0
:103A00009B68B3F5004F04D0FB689B68B3F5806FEB
:103A100007D1FB681B681A68FB681B6822F040022C
:103A20001A60FB685B68B3F5827F2AD1FB689B68EC
:103A3000B3F5806F12D07B680093BB6800228021B1
:103A4000F868FFF749FF0346002B2DD0FB685B6D3C
:103A500043F02002FB685A65032326E07B6800934D
:103A6000BB6800220121F868FFF736FF0346002BF0
:103A70001AD0FB685B6D43F02002FB685A65032394
:103A800013E07B680093BB6800220121F868FFF710
:103A900023FF0346002B07D0FB685B6D43F0200239
:103AA000FB685A65032300E0002318461037BD4623
:103AB00080BD000080B588B002AFF860B9607A6060
:103AC0001B4B1B681B4AA2FB03235B0D4FF47A724E
:103AD00002FB03F37B61FB685B68B3F5827F12D165
:103AE0007B680093BB6800228021F868FFF7F4FE32
:103AF0000346002B16D0FB685B6D43F02002FB6889
:103B00005A6503230FE07B69002B0AD07B69013BD8
:103B10007B61FB681B689B6803F08003802BF2D0FD
:103B200000E000BF002318461837BD4680BD00BF27
:103B300000000020819F5E1680B582B000AF7860E3
:103B40007B68002B01D1012331E07B6893F8393089
:103B5000DBB2002B06D17B68002283F8382078681E
:103B600000F029F87B68022283F839207B681A6804
:103B70007B6804331946104600F078F97B6801220F
:103B800083F83E207B68012283F83A207B6801227B
:103B900083F83B207B68012283F83C207B6801226C
:103BA00083F83D207B68012283F8392000231846E2
:103BB0000837BD4680BD80B483B000AF786000BFD9
:103BC0000C37BD4680BC704780B485B000AF7860CC
:103BD0007B6893F83930DBB2012B01D001233AE046
:103BE0007B68022283F839207B681B68DA687B686F
:103BF0001B6842F00102DA607B681B68B3F1804FFA
:103C00000ED07B681B68164A934209D07B681B68FC
:103C1000144A934204D07B681B68134A934211D123
:103C20007B681B689B6803F00703FB60FB68062B3F
:103C300010D07B681B681A687B681B6842F0010221
:103C40001A6007E07B681B681A687B681B6842F093
:103C500001021A60002318461437BD4680BC704725
:103C600000040040000800400008014080B582B018
:103C700000AF78607B681B681B6903F00203022BAE
:103C800022D17B681B68DB6803F00203022B1BD187
:103C90007B681B686FF002021A617B6801221A764A
:103CA0007B681B689B6903F00303002B03D07868D3
:103CB00000F0C1F805E0786800F0B4F8786800F02A
:103CC000C3F87B6800221A767B681B681B6903F0C7
:103CD0000403042B22D17B681B68DB6803F0040318
:103CE000042B1BD17B681B686FF004021A617B6890
:103CF00002221A767B681B689B6903F44073002BD1
:103D000003D0786800F097F805E0786800F08AF84A
:103D1000786800F099F87B6800221A767B681B6847
:103D20001B6903F00803082B22D17B681B68DB6842
:103D300003F00803082B1BD17B681B686FF0080297
:103D40001A617B6804221A767B681B68DB6903F0C2
:103D50000303002B03D0786800F06DF805E0786865
:103D600000F060F8786800F06FF87B6800221A763F
:103D70007B681B681B6903F01003102B22D17B6842
:103D80001B68DB6803F01003102B1BD17B681B68DA
:103D90006FF010021A617B6808221A767B681B6834
:103DA000DB6903F44073002B03D0786800F043F81C
:103DB00005E0786800F036F8786800F045F87B6830
:103DC00000221A767B681B681B6903F00103012B34
:103DD0000ED17B681B68DB6803F00103012B07D160
:103DE0007B681B686FF001021A617868FDF780F943
:103DF0007B681B681B6903F04003402B0ED17B6876
:103E00001B68DB6803F04003402B07D17B681B680D
:103E10006FF040021A61786800F01FF800BF0837A1
:103E2000BD4680BD80B483B000AF786000BF0C3762
:103E3000BD4680BC704780B483B000AF786000BFDF
:103E40000C37BD4680BC704780B483B000AF78604B
:103E500000BF0C37BD4680BC704780B483B000AF54
:103E6000786000BF0C37BD4680BC704780B485B019
:103E700000AF786039607B681B68FB607B68B3F1DA
:103E8000804F0FD07B682B4A93420BD07B682A4A25
:103E9000934207D07B68294A934203D07B68284A23
:103EA000934208D1FB6823F07003FB603B685B68BA
:103EB000FA681343FB607B68B3F1804F17D07B68CF
:103EC0001C4A934213D07B681B4A93420FD07B68F5
:103ED0001A4A93420BD07B68194A934207D07B68F9
:103EE000184A934203D07B68174A934208D1FB6873
:103EF00023F44073FB603B68DB68FA681343FB60A4
:103F0000FB6823F080023B681B691343FB607B68FE
:103F1000FA681A603B689A687B68DA623B681A68DC
:103F20007B689A627B6801225A6100BF1437BD46E4
:103F300080BC70470004004000080040000C0040B6
:103F400000080140000C01400010014080B582B023
:103F500000AF78607B68002B01D101233FE07B68D4
:103F600093F83930DBB2002B06D17B68002283F84E
:103F700038207868FDF710FB7B68242283F839200D
:103F80007B681B68DA687B681B6822F40052DA6081
:103F9000786800F063FA7B681B681A697B681B68A5
:103FA00022F490421A617B681B685A697B681B681F
:103FB00022F02A025A617B681B68DA687B681B68FA
:103FC00042F40052DA607B680022DA637B682022C8
:103FD00083F839207B68202283F83A200023184692
:103FE0000837BD4680BD000080B588B000AF78605E
:103FF0007B681B681B68FB617B681B68DB68BB61B7
:104000007B681B685B697B6100233B610023FB606D
:10401000FB6903F00F033B613B69002B0DD1FB698A
:1040200003F02003002B08D0BB6903F02003002B12
:1040300003D0786800F091F9D0E03B69002B00F0E4
:10404000B0807B6903F00103002B05D1BB6903F449
:104050009073002B00F0A580FB6903F00103002B97
:104060000AD0BB6903F48073002B05D07B68DB6B3F
:1040700043F001027B68DA63FB6903F00403002B61
:104080000AD07B6903F00103002B05D07B68DB6B52
:1040900043F002027B68DA63FB6903F00203002B42
:1040A0000AD07B6903F00103002B05D07B68DB6B32
:1040B00043F004027B68DA63FB6903F00803002B1A
:1040C0000FD0BB6903F02003002B04D17B6903F000
:1040D0000103002B05D07B68DB6B43F008027B6893
:1040E000DA637B68DB6B002B77D0FB6903F020037E
:1040F000002B07D0BB6903F02003002B02D07868A7
:1041000000F02BF97B681B685B6903F04003402BD0
:104110000CBF01230023DBB2FB607B68DB6B03F089
:104120000803002B02D1FB68002B31D0786800F027
:1041300076F87B681B685B6903F04003402B23D152
:104140007B681B685A697B681B6822F040025A61D1
:104150007B685B6B002B13D07B685B6B214A5A63D7
:104160007B685B6B1846FDF7A2FE0346002B16D05A
:104170007B685B6B5B6B7A68526B104698470EE00E
:10418000786800F043F80AE0786800F03FF806E04D
:10419000786800F03BF87B680022DA631DE000BF1E
:1041A0001BE0FB6903F08003002B08D0BB6903F020
:1041B0008003002B03D0786800F062F80EE0FB6902
:1041C00003F04003002B09D0BB6903F04003002B30
:1041D00004D0786800F0A9F800E000BF2037BD46A1
:1041E00080BD00BF5942000880B483B000AF786042
:1041F00000BF0C37BD4680BC704780B483B000AFB1
:10420000786000BF0C37BD4680BC704780B483B077
:1042100000AF786000BF0C37BD4680BC704780B4EB
:1042200083B000AF78607B681B68DA687B681B68C6
:1042300022F49072DA607B681B685A697B681B689D
:1042400022F001025A617B68202283F83A2000BFE5
:104250000C37BD4680BC704780B584B000AF786035
:104260007B685B6AFB60FB680022DA85FB680022E2
:10427000DA84F868FFF7CAFF00BF1037BD4680BD7B
:1042800080B485B000AF78607B6893F83930DBB2DA
:10429000212B44D17B689B68B3F5805F1AD17B6882
:1042A0001B6AFB60FB681B881A467B681B68C2F3AD
:1042B00008025A607B681B69002B05D17B681B6A6A
:1042C0009A1C7B681A620EE07B681B6A5A1C7B682A
:1042D0001A6208E07B681B6A591C7A6811621A78B6
:1042E0007B681B685A607B68DB8C9BB2013B9BB28E
:1042F0007A681946D184002B0FD17B681B68DA6875
:104300007B681B6822F08002DA607B681B68DA68D1
:104310007B681B6842F04002DA60002300E0022361
:1043200018461437BD4680BC704780B582B000AFD8
:1043300078607B681B68DA687B681B6822F0400243
:10434000DA607B68202283F839207868FFF74CFF19
:10435000002318460837BD4680BD80B584B000AF45
:1043600078607B6893F83A30DBB2222B71D17B689E
:104370009B68B3F5805F23D17B689B6AFB607B6899
:104380001B69002B0ED17B681B685B689BB2C3F373
:1043900008039AB2FB681A807B689B6A9A1C7B6848
:1043A0009A6229E07B681B685B689BB2DBB29AB2B9
:1043B000FB681A807B689B6A5A1C7B689A621BE0C8
:1043C0007B681B69002B0AD17B681B6858687B6877
:1043D0009B6A591C7A689162C2B21A700CE07B68C1
:1043E0001B685B68DAB27B689B6A581C79688862D4
:1043F00002F07F02D2B21A707B68DB8D9BB2013B68
:104400009BB27A681946D185002B20D17B681B6846
:10441000DA687B681B6822F02002DA607B681B6820
:10442000DA687B681B6822F48072DA607B681B683C
:104430005A697B681B6822F001025A617B6820225E
:1044400083F83A207868FFF7D8FE002302E00023C3
:1044500000E0022318461037BD4680BD80B584B009
:1044600000AF78607B681B681B6923F440517B6850
:10447000DA687B681B680A431A617B689A687B6804
:104480001B691A437B685B691A437B68DB691343CA
:10449000BB607B681B68DB6823F4164323F00C03C6
:1044A0007A681268B9680B43D3607B681B685B69E4
:1044B00023F440717B689A697B681B680A435A61E0
:1044C0007B681B68554A934203D1FEF7E9FCF8600C
:1044D00002E0FEF7D1FCF8607B68DB69B3F5004FC2
:1044E0004CD1FA6813469B0013449A001A447B6827
:1044F0005B685B00B2FBF3F3494AA2FB03235B0951
:104500001901FA6813469B0013449A001A447B6809
:104510005B685B00B2FBF3F2414BA3FB02035B0958
:10452000642000FB03F3D31ADB0032333C4AA2FBC6
:1045300003235B095B0003F4F8731944FA6813461C
:104540009B0013449A001A447B685B685B00B2FBD3
:10455000F3F2334BA3FB02035B09642000FB03F37C
:10456000D31ADB0032332E4AA2FB03235B0903F08C
:1045700007027B681B680A449A604AE0FA6813469F
:104580009B0013449A001A447B685B689B00B2FB53
:10459000F3F3234AA2FB03235B091901FA681346CC
:1045A0009B0013449A001A447B685B689B00B2FB33
:1045B000F3F21B4BA3FB02035B09642000FB03F334
:1045C000D31A1B013233164AA2FB03235B0903F003
:1045D000F0031944FA6813469B0013449A001A44E6
:1045E0007B685B689B00B2FBF3F20D4BA3FB0203FD
:1045F0005B09642000FB03F3D31A1B013233084A22
:10460000A2FB03235B0903F00F027B681B680A44CB
:104610009A6000BF1037BD4680BD00BF0038014022
:104620001F85EB5180B485B000AF78604FF43F43F5
:10463000FB607B68B3F840309AB2FB689BB2DB4307
:104640009BB213409AB27B68A3F84020002318461F
:104650001437BD4680BC704784B080B483B000AFCF
:10466000786007F1140080E80E007B680122A3F84F
:1046700040207B680022A3F840207B680022A3F83A
:1046800044207B680022A3F85020002318460C37F2
:10469000BD4680BC04B0704780B500AF04490548F2
:1046A00003F08CF903461A46034B1A7000BF80BD15
:1046B0002C230020100000203023002080B400AF05
:1046C00000231846BD4680BC704780B400AF00BFD1
:1046D000BD4680BC704780B400AF00BFBD4680BC03
:1046E0007047000080B582B000AF0346FB7100BF89
:1046F000084B1B689B6803F00203022BF8D1F91DDD
:10470000642301220348FEF7F8FC00BF0837BD46CA
:1047100080BD00BF241F002080B582B000AF78604C
:104720000B467B8000BF084B1B689B6803F00203AD
:10473000022BF8D17A88642379680348FEF7DDFC00
:1047400000BF0837BD4680BD241F002080B582B061
:1047500000AF00BF084B1B689B6803F00203022BED
:10476000F8D1F91D642301220348FEF702FEFB790C
:1047700018460837BD4680BD241F002080B582B092
:1047800000AF7860FFF7E2FF03461A467B681A70B5
:1047900000BF0837BD4680BD80B582B000AFFDF7D1
:1047A00007F8034603F5FA737B60FFF7CFFF034674
:1047B000FB70FB78FF2B05D0FCF7FAFF02467B6805
:1047C0009342F2D8FB7818460837BD4680BD0000FA
:1047D00080B584B000AF41F6FF73FB60FFF77BFF4D
:1047E0000023BB6005E0FF20FFF77CFFBB680133BF
:1047F000BB60BB68132BF6DDFFF767FF40233B7000
:1048000000237B700023BB700023FB7000233B71EF
:1048100095237B713B4606211846FFF77DFF02E09A
:10482000FB68013BFB60FFF791FF0346012B02D0C1
:10483000FB68002BF4D1FFF74EFFFF20FFF752FF7C
:10484000034B01221A7000BF1037BD4680BD00BF68
:10485000AD00002080B400AF034B00221A7000BFEF
:10486000BD4680BC704700BFAD00002080B400AFE3
:10487000024B1B781846BD4680BC7047AD00002037
:1048800080B584B000AF78603960FCF791FF0346D3
:10489000C833FB60FFF75AFF0346FB72FB7AFF2B1E
:1048A00005D1FCF785FF0246FB689342F2D8FB7AFC
:1048B000FE2B01D000230FE07B685A1C7A6018465B
:1048C000FFF75CFF3B685A1E3A60002BF4D1FFF7FC
:1048D0003DFFFFF73BFF012318461037BD4680BD63
:1048E00080B584B000AF78600B46FB700023BB73CB
:1048F000FFF752FF0346FF2B01D000232FE0FB7888
:104900001846FFF7EFFEFB78FD2B20D04FF4007127
:104910007868FFF701FFFFF719FFFFF717FF0BE0BC
:10492000FFF714FF0346FB73FB7B03F01F03052B0C
:1049300006D0BB7B0133BB73BB7B402BF0D900E0BF
:1049400000BF00BFFFF702FF0346002BFAD0FB7B3E
:1049500003F01F03052B01D1012300E000231846BB
:104960001037BD4680BD80B584B000AF03463960C6
:10497000FB71FFF711FF0346FF2B01D0FF2342E03D
:10498000FB791846FFF7AEFE3B681B0EDBB21846FC
:10499000FFF7A8FE3B681B0CDBB21846FFF7A2FE30
:1049A0003B681B0ADBB21846FFF79CFE3B68DBB294
:1049B0001846FFF797FEFB79402B02D19523FB7336
:1049C00007E0FB79482B02D18723FB7301E0012329
:1049D000FB73FB7B1846FFF785FEFB794C2B01D15F
:1049E000FFF7B4FE0A23BB73FFF7B0FE03467B73E9
:1049F00097F90D30002B05DABB7B013BBB73BB7B0A
:104A0000002BF1D17B7B18461037BD4680BD0000DE
:104A100090B587B000AF0346FB71FB79002B01D046
:104A20000123DDE0704B1B78DBB203F00203002BA7
:104A300003D06D4B1B78DBB2D2E0FFF7C9FEFFF766
:104A400044FE0023BB7500214020FFF78CFF034686
:104A5000012B40F0AD80FCF7ABFE034603F57A7303
:104A60003B614FF4D5714820FFF77DFF0346012BD2
:104A70005BD10023FB750CE0FC7DFFF767FE03466E
:104A80001A4607F11803234403F80C2CFB7D01336D
:104A9000FB75FB7D032BEFD9BB7B012B40F088809E
:104AA000FB7BAA2B40F0848000217720FFF75BFF7F
:104AB0000346012B07D84FF080416920FFF753FFD1
:104AC0000346002B06D0FCF773FE02463B69934277
:104AD000EAD800E000BFFCF76BFE02463B69934258
:104AE00066D900217A20FFF73EFF0346002B5FD1F5
:104AF0000023FB750CE0FC7DFFF728FE03461A46F9
:104B000007F11803234403F80C2CFB7D0133FB75DC
:104B1000FB7D032BEFD93B7B03F04003002B01D03F
:104B20000C2300E00423BB7542E000217720FFF74F
:104B30001AFF0346012B08D800216920FFF713FF55
:104B40000346012B01D8022300E00123BB75BB7D86
:104B5000022B0ED100217720FFF705FF0346012B22
:104B60000ED800216920FFF7FEFE0346002B07D177
:104B70000EE000214120FFF7F6FE0346002B06D091
:104B8000FCF716FE02463B699342E0D800E000BF06
:104B9000FCF70EFE02463B69934207D84FF40071C2
:104BA0005020FFF7E0FE0346002B01D00023BB7529
:104BB0000E4ABB7D1370FFF78EFDFFF7C7FDBB7D6F
:104BC000002B08D0084B1B78DBB223F00103DAB2CC
:104BD000054B1A7001E0FFF73DFE034B1B78DBB27B
:104BE00018461C37BD4690BD0C000020AC000020CC
:104BF00080B483B000AF0346FB71FB79002B01D07A
:104C0000012302E0034B1B78DBB218460C37BD468C
:104C100080BC70470C00002080B584B000AFB96044
:104C20007A603B600346FB73FB7B002B02D13B6841
:104C3000002B01D1042351E02A4B1B78DBB203F097
:104C40000103002B01D0032348E0274B1B7803F01E
:104C50000403002B02D17B685B027B60FFF735FD0C
:104C60003B68012B11D179685120FFF77CFE034688
:104C7000002B29D14FF40071B868FFF701FE0346FD
:104C8000002B21D000233B601EE079685220FFF703
:104C90006AFE0346002B17D14FF40071B868FFF786
:104CA000EFFD0346002B0AD0BB6803F50073BB6021
:104CB0003B68013B3B603B68002BEDD100E000BF4F
:104CC00000214C20FFF74FFEFFF705FDFFF73EFDEB
:104CD0003B68002B14BF01230023DBB218461037BA
:104CE000BD4680BD0C000020AC00002080B584B023
:104CF00000AFB9607A603B600346FB73FB7B002B1F
:104D000002D13B68002B01D104236BE0374B1B78A9
:104D1000DBB203F00103002B01D0032362E0334B2D
:104D20001B78DBB203F00403002B01D0022359E00F
:104D30002F4B1B7803F00403002B02D17B685B022E
:104D40007B60FFF7C2FC3B68012B10D179685820CB
:104D5000FFF709FE0346002B3AD1FE21B868FFF7A2
:104D6000BFFD0346002B33D000233B6030E0204BD7
:104D70001B7803F00203002B07D000217720FFF7F8
:104D8000F2FD39685720FFF7EEFD79685920FFF7EB
:104D9000EAFD0346002B1BD1FC21B868FFF7A0FDFC
:104DA0000346002B0AD0BB6803F50073BB603B6869
:104DB000013B3B603B68002BEED100E000BFFD21D2
:104DC0000020FFF78DFD0346002B01D101233B603E
:104DD000FFF781FCFFF7BAFC3B68002B14BF0123EF
:104DE0000023DBB218461037BD4680BD0C00002002
:104DF000AC00002090B58BB000AF03463A60FB7169
:104E00000B46BB713B683B62FB79002B01D004234E
:104E100015E1012387F82730BB79052B24D13B6AA4
:104E20001B78022B12D0022B1ADC002B02D0012B94
:104E300006D015E0FFF70EFD002387F82730FCE0D1
:104E4000FFF7C6FC002387F82730F6E03B6A5C1CBE
:104E5000FFF70CFD03462370002387F82730ECE0B2
:104E6000042387F82730E8E0774B1B78DBB203F0A8
:104E70000103002B01D00323E1E0FFF726FCBB79FF
:104E80000D2B00F2CB8001A252F823F0874F0008CF
:104E9000C54E0008774F00081D5000081D5000083F
:104EA0001D5000081D5000081D5000081D5000082E
:104EB0001D5000081D500008994F0008BD4F000804
:104EC000E14F000800214920FFF74DFD0346002B6C
:104ED00040F0A88007F10C0310211846FFF7D0FC22
:104EE0000346002B00F09E803B7B9B09DBB2012B2D
:104EF0000ED17B7D9AB23B7D9BB21B029BB21344C9
:104F00009BB20133FB83FB8B9A023B681A602EE055
:104F10007B7C03F00F03DAB2BB7DDB09DBB2134409
:104F2000DAB27B7D5B00DBB203F00603DBB2134435
:104F3000DBB2023387F826303B7D9B09DBB29AB2A5
:104F4000FB7C9BB29B009BB213449AB2BB7C9B023E
:104F50009BB203F440639BB213449BB20133FB83C7
:104F6000FA8B97F82630093B9A403B681A60002379
:104F700087F8273056E03B684FF400721A80002310
:104F800087F8273055E0FFF707FC0346FF2B4BD18E
:104F9000002387F8273047E000214920FFF7E3FC92
:104FA0000346002B42D11021386AFFF769FC034603
:104FB000002B3BD0002387F8273037E000214A2020
:104FC000FFF7D1FC0346002B32D11021386AFFF7DE
:104FD00057FC0346002B2BD0002387F8273027E00F
:104FE00000217A20FFF7BFFC0346002B16D10023D7
:104FF00087F826300BE03C6A631C3B62FFF7A6FB98
:105000000346237097F82630013387F8263097F847
:105010002630032BEFD9002387F82730042387F8A5
:10502000273006E000BF04E000BF02E000BF00E060
:1050300000BFFFF750FBFFF789FB97F827301846B2
:105040002C37BD4690BD00BF0C00002080B582B05B
:1050500000AF0346FB71FB791846FFF7D9FC034606
:1050600018460837BD4680BD80B582B000AF034604
:10507000FB71FB791846FFF7BBFD0346184608375E
:10508000BD4680BD80B584B000AFB9607A603B603A
:105090000346FB73F87B3B687A68B968FFF7BCFD91
:1050A000034618461037BD4680BD80B584B000AFBA
:1050B000B9607A603B600346FB73F87B3B687A68B3
:1050C000B968FFF713FE034618461037BD4680BD8A
:1050D00080B582B000AF03463A60FB710B46BB71EE
:1050E000B979FB793A681846FFF784FE03461846FB
:1050F0000837BD4680BD000080B584B000AF0346D0
:10510000FB71FB79084A9B0013445B685B68FA7982
:1051100005490A44127A104698470346FB73FB7B05
:1051200018461037BD4680BDD800002080B584B039
:1051300000AF0346FB710023FB73FB790D4AD35C80
:10514000002B11D1FB790B4A0121D154FB79094A7B
:105150009B0013445B681B68FA7906490A44127A7B
:10516000104698470346FB73FB7B18461037BD4635
:1051700080BD00BFD800002090B587B000AFB960F7
:105180007A603B600346FB73FB7B0A4A9B00134437
:105190005B689C68FB7B074A1344187A3B687A6813
:1051A000B968A0470346FB75FB7D18461C37BD4612
:1051B00090BD00BFD800002090B587B000AFB960A7
:1051C0007A603B600346FB73FB7B0A4A9B001344F7
:1051D0005B68DC68FB7B074A1344187A3B687A6893
:1051E000B968A0470346FB75FB7D18461C37BD46D2
:1051F00090BD00BFD800002080B584B000AF03464A
:105200003A60FB710B46BB71FB79094A9B00134462
:105210005B681B69FA7906490A44107AB9793A68D9
:1052200098470346FB73FB7B18461037BD4680BD8D
:10523000D800002080B485B000AF78607B6801336F
:105240001B78FB81FB891B021AB27B681B781BB29F
:1052500013431BB2FB81FB8918461437BD4680BC43
:10526000704780B485B000AF78607B6803331B78EB
:10527000FB60FB681B027A68023212781343FB6002
:10528000FB681B027A68013212781343FB60FB68EB
:105290001B027A6812781343FB60FB6818461437C8
:1052A000BD4680BC704780B483B000AF78600B46C9
:1052B0007B807B685A1C7A607A88D2B21A707B88AD
:1052C0001B0A7B807B685A1C7A607A88D2B21A707B
:1052D00000BF0C37BD4680BC704780B483B000AFC0
:1052E000786039607B685A1C7A603A68D2B21A706A
:1052F0003B681B0A3B607B685A1C7A603A68D2B2F2
:105300001A703B681B0A3B607B685A1C7A603A68DB
:10531000D2B21A703B681B0A3B607B685A1C7A60E9
:105320003A68D2B21A7000BF0C37BD4680BC7047D5
:1053300080B487B000AFF860B9607A60FB687B61C9
:10534000BB683B617B68002B0DD03A69531C3B6105
:105350007B69591C796112781A707B68013B7B600C
:105360007B68002BF1D100BF1C37BD4680BC704765
:1053700080B487B000AFF860B9607A60FB687B6189
:105380007B695A1C7A61BA68D2B21A707B68013B99
:105390007B607B68002BF3D100BF00BF1C37BD468C
:1053A00080BC704780B489B000AFF860B9607A60A3
:1053B000FB68FB61BB68BB6100237B61FB695A1C16
:1053C000FA611B781946BB695A1CBA611B78CB1A63
:1053D0007B617B68013B7B607B68002B02D07B6933
:1053E000002BEBD07B6918462437BD4680BC704744
:1053F00080B483B000AF7860396002E07B6801332D
:105400007B607B681B78002B05D07B681B781A4675
:105410003B689342F2D17B681B7818460C37BD4637
:1054200080BC704780B485B000AF786039600023DD
:10543000BB60BB68FB6029E0264AFB681B01134484
:105440001B68002B1DD0234AFB681B0113441A68FC
:105450007B681B689A4216D11E4AFB681B011344E5
:1054600004331A687B689B689A420CD1194AFB681E
:105470001B01134408331A687B685B699A4202D1A6
:1054800007E00123BB60FB680133FB60FB68012B75
:10549000D2D9FB68022B09D1BB68002B02D13B6833
:1054A000022B01D1002310E012230EE03B68002BF9
:1054B00008D1084AFB681B0113440C331B88B3F561
:1054C000807F01D1102300E0002318461437BD4629
:1054D00080BC7047B800002080B483B000AF0023C8
:1054E0007B6002E07B6801337B607B68012B06D820
:1054F000084A7B681B0113441B68002BF2D17B68B0
:10550000022B14BF01230023DBB218460C37BD4623
:1055100080BC7047B800002080B485B000AF7860D0
:1055200039600023FB601FE0414AFB681B01134404
:105530001A687B681B689A4213D13D4AFB681B01BD
:10554000134404331A687B689B689A4209D1384A2D
:10555000FB681B01134408331A687B685B699A4235
:1055600006D0FB680133FB60FB68012BDCD900E04F
:1055700000BFFB68022B32D10023FB6002E0FB6816
:105580000133FB60FB68012B06D8294AFB681B012D
:1055900013441B68002BF2D1FB68022B01D10023BE
:1055A00040E07B681A682249FB681B010B441A60C3
:1055B0007B689A681E49FB681B010B4404331A6020
:1055C0007B685A691A49FB681B010B4408331A604F
:1055D000174AFB681B0113440C3300221A803B68F6
:1055E000002B09D0124AFB681B0113440C331B88A3
:1055F000002B01D0002315E03B68002B08D10C4A9A
:10560000FB681B0113440C331B8801339AB201E081
:105610004FF480720649FB681B010B440C331A805F
:10562000FB68013318461437BD4680BC704700BF85
:10563000B800002080B485B000AF78607B68013B83
:105640007B607B68012B25D8164A7B681B011344BD
:105650000C331B88FB81FB89B3F5807F01D10023CC
:10566000FB81FB89002B02D0FB89013BFB810D4AAA
:105670007B681B0113440C33FA891A80FB89002BC9
:1056800005D1084A7B681B01134400221A600023DD
:105690007B7301E002237B737B7B18461437BD4686
:1056A00080BC7047B800002080B485B000AF78603F
:1056B0000023FB6010E00D4AFB681B0113441B68CC
:1056C0007A689A4205D1094AFB681B0113440022FB
:1056D0001A60FB680133FB60FB68012BEBD900BF4C
:1056E00000BF1437BD4680BC704700BFB800002023
:1056F00080B586B000AF78600023FB737B68DB78F1
:10570000002B34D07B68DB6A7B617B6858787B68D0
:1057100003F1300101237A69FFF74EFD0346002BA8
:1057200002D00123FB7322E07B680022DA707B68E1
:105730001B6A7A69D21A7B689B699A4217D27B6886
:105740009B783B6110E07B689B697A6913447B61BD
:105750007B6858787B6803F1300101237A69FFF791
:105760002BFD3B69013B3B613B69012BEBD8FB7B8C
:1057700018461837BD4680BD80B584B000AF78604C
:1057800039600023FB737B68DB6A3A689A421BD05E
:105790007868FFF7ADFF0346FB73FB7B002B13D14B
:1057A0007B6858787B6803F1300101233A68FFF782
:1057B000E3FC0346002B04D04FF0FF333B60012392
:1057C000FB737B683A68DA62FB7B18461037BD468C
:1057D00080BD000080B584B000AF78607868FFF7C6
:1057E00087FF0346FB73FB7B002B58D17B681B783C
:1057F000032B48D17B681B79012B44D17B68303364
:105800004FF4007200211846FFF7B2FD7B68303379
:1058100003F5FF734AF655211846FFF744FD7B68F0
:10582000303321491846FFF758FD7B68303303F5C4
:10583000F2731E491846FFF750FD7B68303303F5BD
:10584000F4727B681B6919461046FFF746FD7B68BA
:10585000303303F5F6727B68DB6819461046FFF7B4
:105860003CFD7B68DB695A1C7B68DA627B68587890
:105870007B6803F130017B68DA6A0123FFF79CFC47
:105880007B6800221A717B685B7800220021184631
:10589000FFF7B2FC0346002B01D00123FB73FB7B17
:1058A00018461037BD4680BD525261417272416147
:1058B00080B483B000AF786039603B68023B3B60E6
:1058C0007B685B69023B3A689A4201D3002308E097
:1058D0007B685B891A463B6803FB02F27B689B6A24
:1058E000134418460C37BD4680BC704780B586B05F
:1058F00000AF786039607B681B683B613B68012BB7
:1059000004D93B695B693A689A4202D301237B61FF
:105910008FE04FF0FF337B613B691B78032B62D034
:10592000032B7CDC012B02D0022B42D077E03B68BA
:10593000FB60FB685B08FA681344FB603B691A6A0A
:10594000FB685B0A134419463869FFF715FF0346E5
:10595000002B67D1FB685A1CFA60C3F308033A694D
:10596000134493F83030BB603B691A6AFB685B0AEA
:10597000134419463869FFF7FFFE0346002B53D145
:10598000FB68C3F308033A69134493F830301B02F1
:105990001A46BB681343BB603B6803F00103002B4E
:1059A00002D0BB681B0902E0BB68C3F30B037B6139
:1059B0003FE03B691A6A3B681B0A13441946386981
:1059C000FFF7DAFE0346002B30D13B6903F13002CA
:1059D0003B685B0003F4FF7313441846FFF72AFC8F
:1059E00003467B6125E03B691A6A3B68DB09134487
:1059F00019463869FFF7C0FE0346002B18D13B69F2
:105A000003F130023B689B0003F4FE731344184615
:105A1000FFF727FC034623F070437B6109E0012375
:105A20007B6106E000BF04E000BF02E000BF00E0D1
:105A300000BF7B6918461837BD4680BD90B589B058
:105A400000AFF860B9607A600223FB77BB68012B76
:105A500040F2D280FB685B69BA689A4280F0CC80E1
:105A6000FB681B78032B00F09680032B00F3CD809E
:105A7000012B02D0022B6ED0C7E0BB68BB61BB69B3
:105A80005B08BA691344BB61FB681A6ABB695B0AAD
:105A900013441946F868FFF76FFE0346FB77FB7F58
:105AA000002B40F0AB80FB6803F13002BB69591C4E
:105AB000B961C3F3080313447B61BB6803F00103BE
:105AC000002B0DD07B691B785BB203F00F035AB239
:105AD0007B68DBB21B015BB213435BB2DBB201E05C
:105AE0007B68DBB27A691370FB680122DA70FB68AD
:105AF0001A6ABB695B0A13441946F868FFF73CFE53
:105B00000346FB77FB7F002B7AD1FB6803F1300261
:105B1000BB69C3F3080313447B61BB6803F0010353
:105B2000002B03D07B681B09DBB20EE07B691B787E
:105B30005BB223F00F035AB27B681B0A5BB203F01F
:105B40000F035BB213435BB2DBB27A691370FB687D
:105B50000122DA7059E0FB681A6ABB681B0A134419
:105B60001946F868FFF708FE0346FB77FB7F002B1A
:105B700048D1FB6803F13002BB685B0003F4FF739C
:105B800013447A6892B211461846FFF78CFBFB6803
:105B90000122DA7039E0FB681A6ABB68DB0913443A
:105BA0001946F868FFF7E8FD0346FB77FB7F002BFB
:105BB0002AD17B6823F07044FB6803F13002BB6894
:105BC0009B0003F4FE7313441846FFF74AFB034699
:105BD00003F0704323437B60FB6803F13002BB6832
:105BE0009B0003F4FE73134479681846FFF775FBB6
:105BF000FB680122DA7008E000BF06E000BF04E0A5
:105C000000BF02E000BF00E000BFFB7F1846243762
:105C1000BD4690BD80B588B000AFF860B9607A60CD
:105C20000023FB77FB681B68BB61BB68012B04D9B1
:105C3000BB695B69BA689A4201D302234BE07B6877
:105C4000002B0CD04FF0FF327968B869FFF7F6FEF1
:105C50000346FB77FB7F002B01D0FB7F3BE0B9685D
:105C6000F868FFF743FE78617B69002B31D07B69D0
:105C7000012B01D102232EE07B69B3F1FF3F01D15B
:105C8000012328E00022B968B869FFF7D7FE034670
:105C9000FB77FB7F002B01D0FB7F1CE0BB691A69FF
:105CA000BB695B69023B9A420BD2BB691B695A1CF8
:105CB000BB691A61BB691B7943F00103DAB2BB69A6
:105CC0001A717B69BB60BB695B69BA689A42C6D3CB
:105CD00000E000BF002318462037BD4680BD80B5D8
:105CE00088B000AF786039607B681B683B613B68B7
:105CF000002B0DD13B69DB68BB61BB69002B04D075
:105D00003B695B69BA699A421BD30123BB6118E006
:105D100039687868FFF7EAFDF860FB68012B01D865
:105D2000012370E0FB68B3F1FF3F01D1FB686AE03B
:105D30003B695B69FA689A4201D2FB6863E03B68A1
:105D4000BB61BB69FB61FB690133FB613B695B695B
:105D5000FA699A4207D30223FB61FA69BB699A4246
:105D600001D900234FE0F9697868FFF7BFFDF860BB
:105D7000FB68002B0ED0FB68012B03D0FB68B3F14E
:105D8000FF3F01D1FB683EE0FA69BB699A42DAD174
:105D9000002338E000BF4FF0FF32F9693869FFF7A0
:105DA0004DFE0346FB75FB7D002B09D13B68002BA4
:105DB00006D0FA6939683869FFF740FE0346FB757B
:105DC000FB7D002B16D13B69FA69DA603B691A69E1
:105DD0003B695B69023B9A4204D83B691B695A1EC6
:105DE0003B691A613B691B7943F00103DAB23B69F5
:105DF0001A7107E0FB7D012B02D14FF0FF3300E069
:105E00000123FB61FB6918462037BD4680BD80B485
:105E100087B000AF786039607B681B68FB607B6887
:105E2000DB6A04333B613B685B0AFA685289B3FB67
:105E3000F2F37B613B691A1D3A611B68BB60BB686A
:105E4000002B01D1002310E07A69BB689A4207D386
:105E50007A69BB68D31A7B613B6904333B61E9E72C
:105E600000BF3B691A687B69134418461C37BD465E
:105E700080BC704780B586B000AF786039607B68C1
:105E80001B683B613B68B3F5001F04D23B6803F01D
:105E90001F03002B01D0022363E07B683A685A613C
:105EA0007B689B687B617B69002B06D13B691B7813
:105EB000022B02D93B695B6A7B617B69002B0CD1A9
:105EC0003B685B093A691289934201D3022348E097
:105ED0003B695A6A7B68DA6129E03B695B895B024E
:105EE000FB6019E07B6879691846FFF7FFFC786171
:105EF0007B69B3F1FF3F01D1012332E07B69012BC4
:105F000004D93B695B697A699A4201D3022328E08C
:105F10003A68FB68D31A3B603A68FB689A42E1D260
:105F200079693869FFF7C4FC02467B68DA617B68EF
:105F30007A699A617B68DB69002B01D1022310E04A
:105F40007B68DA693B685B0A1A447B68DA613B6903
:105F500003F130023B68C3F308031A447B681A62FA
:105F6000002318461837BD4680BD80B586B000AF07
:105F7000786039607B681B68FB607B685B692033F5
:105F8000BB607B68DB69002B03D0BB68B3F5001FE7
:105F900001D30423AAE0BB68C3F30803002B40F03D
:105FA00098807B68DB695A1C7B68DA617B689B6937
:105FB000002B0BD1BB685B09FA6812899342C0F0D1
:105FC00088807B680022DA6104238FE0BB685B0A6B
:105FD000FA685289013A1340002B7AD17A687B68BB
:105FE0009B6919461046FFF781FC78617B69012B9C
:105FF00001D802237AE07B69B3F1FF3F01D101238D
:1060000074E0FB685B697A699A4258D33B68002B5D
:1060100004D17B680022DA61042367E07A687B6838
:106020009B6919461046FFF75AFE78617B69002B81
:1060300001D107235AE07B69012B01D1022355E0EE
:106040007B69B3F1FF3F01D101234FE0F868FFF70F
:106050004FFB0346002B01D0012347E0FB683033A0
:106060004FF4007200211846FFF782F900233B61CC
:106070007969F868FFF71CFC0246FB68DA6212E0F7
:10608000FB680122DA70F868FFF732FB0346002B49
:1060900001D001232AE03B6901333B61FB68DB6AE5
:1060A0005A1CFB68DA62FB685B891A463B699342BB
:1060B000E6D3FB68DA6A3B69D21AFB68DA627B686E
:1060C0007A699A617969F868FFF7F2FB02467B68A2
:1060D000DA617B68BA685A61FB6803F13002BB6819
:1060E000C3F308031A447B681A6200231846183762
:1060F000BD4680BD80B586B000AF786039607B68F2
:106100001B68FB6000217868FFF7B4FE0346FB754F
:10611000FB7D002B2BD100233B617B68DB6919469B
:10612000F868FFF729FB0346FB75FB7D002B1DD1AB
:106130007B681B6A1B78E52B04D07B681B6A1B7885
:10614000002B07D13B6901333B613A693B689A42B6
:1061500002D10CE000233B6101217868FFF705FFC5
:106160000346FB75FB7D002BD7D000E000BFFB7D15
:10617000042B01D10723FB75FB7D18461837BD465C
:1061800080BD80B584B000AF786039603B681A3359
:106190001846FFF74FF80346FB607B681B78032B1C
:1061A00009D13B6814331846FFF744F803461B0433
:1061B000FA681343FB60FB6818461037BD4680BD84
:1061C00080B584B000AFF860B9607A60BB681A33FC
:1061D0007A6892B211461846FFF765F8FB681B789B
:1061E000032B09D1BB6803F114027B681B0C9BB223
:1061F00019461046FFF757F800BF1037BD4680BD5F
:1062000080B586B000AF78607B681B683B61002179
:106210007868FFF72FFE0346FB75FB7D002B01D04E
:10622000FB7D3EE07B68DB6919463869FFF7A4FA1D
:106230000346FB75FB7D002B2FD17B681B6A1B7807
:10624000FB73FB7B002B02D10423FB7528E07B68EA
:106250001B6A0B331B7803F03F03DAB27B689A7139
:106260007B681B6A0B331B7803F00803002B0AD1F1
:106270007B68186A7B6824330B221946FFF792F873
:106280000346002B0BD000217868FFF76EFE034613
:10629000FB75FB7D002BC5D002E000BF00E000BF16
:1062A000FB7D18461837BD4680BD80B584B000AF71
:1062B00078607B681B68BB6001217868FFF71AFF74
:1062C0000346FB73FB7B002B1CD17B68DB69194603
:1062D000B868FFF751FA0346FB73FB7B002B11D123
:1062E0007B681B6A202200211846FFF741F87B6873
:1062F000186A7B6824330B221946FFF719F8BB682C
:106300000122DA70FB7B18461037BD4680BD0000C5
:1063100080B588B000AF786039603B681B68FB606F
:106320007B682433BB600B222021B868FFF720F87C
:1063300000233B613B69FB6108237B61FB695A1CBD
:10634000FA61FA6813441B78FB76FB7E202B4ED94A
:10635000FB7E2F2B06D0FB7E5C2B10D102E0FB696D
:106360000133FB61FA68FB6913441B782F2BF6D0CD
:10637000FA68FB6913441B785C2BF0D038E0FB7E95
:106380002E2B03D03A697B699A420CD37B690B2B85
:1063900002D0FB7E2E2B01D0062344E008233B6174
:1063A0000B237B6122E097F91B30002B04DAFB7E84
:1063B000803B1F4AD35CFB76FB7E19461D48FFF7E6
:1063C00017F80346002B01D006232CE0FB7E602B40
:1063D00005D9FB7E7A2B02D8FB7E203BFB763B69FE
:1063E0005A1C3A61BA681344FA7E1A70A6E700BFD5
:1063F000FA68FB691A443B681A603B69002B01D1BB
:10640000062310E0BB681B78E52B02D1BB68052290
:106410001A70FB7E202B01D8042200E00022BB680A
:106420000B331A70002318462037BD4680BD00BFCD
:1064300010B500086CB4000880B586B000AF786075
:1064400039607B683B613B691B68FB6002E03B682D
:1064500001333B603B681B782F2BF8D03B681B78DF
:106460005C2BF4D03B6900229A603B681B781F2BA1
:106470000AD87B68802283F82F2000217868FFF7F4
:10648000F9FC0346FB7543E03B4619467868FFF785
:106490003FFF0346FB75FB7D002B34D17868FFF787
:1064A000AFFE0346FB757B6893F82F30FB72FB7DD4
:1064B000002B0AD0FB7D042B27D1FB7A03F00403C9
:1064C000002B22D10523FB751FE0FB7A03F00403A8
:1064D000002B1CD13B699B7903F01003002B02D1E8
:1064E0000523FB7514E0FB6803F130027B685B69F0
:1064F000C3F3080313441946F868FFF742FE024647
:106500003B699A60C0E700BF02E000BF00E000BF47
:10651000FB7D18461837BD4680BD80B487B000AFFC
:1065200078604FF0FF333B617B681B68002B31D0F4
:106530007B681B687B6102E07B6901337B617B695F
:106540001B78202B03D97B691B783A2BF4D17B690C
:106550001B783A2B1CD17B681B68FB60FB685A1CBC
:10656000FA601B78303BBB60BB68092B0ED8FA6819
:106570007B699A420AD1BB68002B07D1BB683B619B
:106580007B6901337B617B687A691A603B6902E051
:1065900000233B613B6918461C37BD4680BC7047F1
:1065A00080B582B000AF786039607B680022DA7015
:1065B0007B684FF0FF32DA6239687868FFF7DCF801
:1065C0000346002B01D0042338E07B68303303F509
:1065D000FF731846FEF72EFE03461A464AF6552369
:1065E0009A4201D0032329E07B6893F83030E92BED
:1065F00009D07B6893F83030EB2B1ED17B6893F881
:106600003230902B19D17B68303336331846FEF781
:1066100028FE034623F07F430A4A934201D1002318
:106620000CE07B68303352331846FEF71AFE0346FF
:10663000054A934201D1002300E00223184608379F
:10664000BD4680BD464154004641543380B596B0A6
:1066500000AFF860B9601346FB71BB6800221A6096
:10666000F868FFF75AFFF863FB6B002B01DA0B2386
:106670002EE2A84AFB6B52F82330BB63BB6B002BA6
:1066800001D10C2324E2BB68BA6B1A60FB7923F0BA
:106690000103FB71BB6B1B78002B1AD0BB6B5B78C3
:1066A0001846FEF729FD034687F8373097F837304C
:1066B00003F00103002B0CD1FB79002B07D097F8D6
:1066C000373003F00403002B01D00A2300E200233B
:1066D000FEE1BB6B00221A70FB6BDAB2BB6B5A7027
:1066E000BB6B5B781846FEF721FD034687F8373011
:1066F00097F8373003F00103002B01D00323E7E1C3
:10670000FB79002B07D097F8373003F00403002BF8
:1067100001D00A23DCE100233B65396DB86BFFF73C
:106720003FFF034687F8573097F85730022B4BD17D
:1067300000233B641FE0BB6B03F130023B6C1B0189
:1067400003F5DF7313443B633B6B04331B78002B6F
:1067500006D03B6B08331846FEF783FD024600E087
:1067600000223B6C9B0007F158010B4443F8442C7A
:106770003B6C01333B643B6C032BDCD900233B6453
:106780003B6C002B02D03B6C013B3B643B6C9B00A1
:1067900007F15802134453F8443C3B653B6D002B12
:1067A00005D0396DB86BFFF7FBFE034600E003230D
:1067B00087F8573097F85730012B05D93B6C0133D8
:1067C0003B643B6C032BE1D997F85730042B01D184
:1067D00001237DE197F85730012B01D90D2377E193
:1067E000BB6B30330B331846FEF724FD0346B3F57D
:1067F000007F01D00D236BE1BB6B3033163318469D
:10680000FEF718FD0346FB64FB6C002B06D1BB6B47
:10681000303324331846FEF724FDF864BB6BFA6C62
:106820009A61BB6B93F84020BB6B9A70BB6B9B78F3
:10683000012B05D0BB6B9B78022B01D00D2347E1C8
:10684000BB6B9B781A46FB6C02FB03F3FB64BB6BD0
:1068500093F83D309AB2BB6B5A81BB6B5B89002BBE
:1068600008D0BB6B5B891A46BB6B5B89013B13404D
:10687000002B01D00D232BE1BB6B303311331846B5
:10688000FEF7D8FC03461A46BB6B1A81BB6B1B890B
:1068900003F00F039BB2002B01D00D2318E1BB6B5B
:1068A000303313331846FEF7C5FC0346BB64BB6C9C
:1068B000002B06D1BB6B303320331846FEF7D1FCDA
:1068C000B864BB6B30330E331846FEF7B3FC034697
:1068D000FB85FB8D002B01D10D23F9E0FA8DFB6CBC
:1068E0001344BA6B1289120992B21344BB62BA6C98
:1068F000BB6A9A4201D20D23EAE0BA6CBB6AD31A92
:10690000BA6B5289B3FBF2F37B627B6A002B03D133
:106910000D23DDE0B0000020032387F857307B6AA9
:106920004FF6F572934202D8022387F857307B6AFC
:1069300040F6F572934202D8012387F857307B6AFC
:106940009A1CBB6B5A61BB6B3A6DDA61FA8D3B6D79
:106950001A44BB6B1A623A6DBB6A1A44BB6B9A62EB
:1069600097F85730032B1ED1BB6B30332A331846B0
:10697000FEF760FC0346002B01D00D23A8E0BB6BA3
:106980001B89002B01D00D23A2E0BB6B30332C33CD
:106990001846FEF766FC0246BB6B5A62BB6B5B692E
:1069A0009B007B641FE0BB6B1B89002B01D10D2377
:1069B0008EE0BB6B1A6AFB6C1A44BB6B5A6297F889
:1069C0005730022B03D1BB6B5B695B000AE0BB6BEA
:1069D0005A6913465B0013445A08BB6B5B6903F0AA
:1069E000010313447B64BB6B9A697B6C03F2FF1356
:1069F0005B0A9A4201D20D236AE0BB6B4FF0FF3273
:106A00001A61BB6B1A69BB6BDA60BB6B80221A71AF
:106A100097F85730032B49D1BB6B303330331846CE
:106A2000FEF708FC0346012B40D13B6D01331946AC
:106A3000B86BFEF7A1FE0346002B37D1BB6B0022DB
:106A40001A71BB6B303303F5FF731846FEF7F2FB88
:106A500003461A464AF655239A4227D1BB6B303378
:106A60001846FEF7FEFB03461B4A93421ED1BB6B42
:106A7000303303F5F2731846FEF7F3FB0346174A6B
:106A8000934213D1BB6B303303F5F4731846FEF712
:106A9000E8FB0246BB6B1A61BB6B303303F5F67340
:106AA0001846FEF7DEFB0246BB6BDA60BB6B97F85D
:106AB00057201A700A4B1B8801339AB2084B1A8070
:106AC000074B1A88BB6BDA80B86BFEF7EDFD00232D
:106AD00018465837BD4680BD5252614172724161BD
:106AE000B400002080B584B000AF7860396009231D
:106AF000FB737B68002B1CD07B681B68002B18D0B5
:106B00007B681B681B78002B13D07B689A887B6896
:106B10001B68DB889A420CD17B681B685B7818463F
:106B2000FEF7EAFA034603F00103002B01D100232C
:106B3000FB73FB7B002B02D17B681B6800E000230A
:106B40003A681360FB7B18461037BD4680BD0000D5
:106B500080B588B000AFF860B9601346FB71BB68C0
:106B60003B6107F110031846FFF7D7FCF861FB699A
:106B7000002B01DA0B232BE0174AFB6952F8233074
:106B8000BB61BB69002B05D0B869FEF78DFDBB6901
:106B900000221A70FB68002B02D0FB6800221A70DA
:106BA000FA680D49FB6941F82320FB68002B02D0ED
:106BB000FB79012B01D000230AE007F10C0107F15A
:106BC000080300221846FFF741FD0346FB75FB7DD5
:106BD00018462037BD4680BDB000002080B598B073
:106BE00000AFF860B9601346FB71FB68002B01D160
:106BF0000923ADE1FB7903F03F03FB71FA7907F15B
:106C0000100107F108031846FFF720FD034687F837
:106C10005F3097F85F30002B40F091813B697B61DA
:106C2000BA6807F1140311461846FFF705FC03463E
:106C300087F85F3097F85F30002B1AD197F8433010
:106C40005BB2002B03DA062387F85F3011E0FB7993
:106C500023F00103002B14BF01230023DBB21A46EB
:106C600007F1140311461846FEF7DCFB034687F8CC
:106C70005F30FB7903F01C03002B7FD097F85F3067
:106C8000002B17D097F85F30042B0ED1FEF724FCB1
:106C90000346002B06D007F114031846FFF705FB47
:106CA000034600E0122387F85F30FB7943F00803C6
:106CB000FB7110E0BB7E03F01103002B03D0072310
:106CC00087F85F3007E0FB7903F00403002B02D064
:106CD000082387F85F3097F85F30002B68D1FB7985
:106CE00003F00803002B63D0FDF7E8FC38657B6BED
:106CF0000E33396D1846FEF7F0FA7B6B1633396D9B
:106D00001846FEF7EAFA7B6B0B3320221A703B69B8
:106D10007A6B11461846FFF734FAF8643B69796BD1
:106D200000221846FFF74CFA7B6B1C3300211846F3
:106D3000FEF7D3FA3B690122DA70FB6C002B37D0E7
:106D40003B69DB6A3B6507F114030022F96C1846C6
:106D5000FEF760FF034687F85F3097F85F30002B3F
:106D600026D13B69396D1846FEF706FD034687F8C4
:106D70005F303B69FA6C013ADA6019E097F85F30EE
:106D8000002B15D1BB7E03F01003002B03D004238E
:106D900087F85F300CE0FB7903F00203002B07D08B
:106DA000BB7E03F00103002B02D0072387F85F307E
:106DB00097F85F30002B28D1FB7903F00803002BF4
:106DC00003D0FB7943F04003FB713B69DA6AFB684F
:106DD0005A627A6BFB689A62FB7923F00103002BFD
:106DE00014BF01230023DBB21A4607F11403114636
:106DF0001846FEF791FB0246FB681A61FB681B69A7
:106E0000002B02D1022387F85F3097F85F30002B08
:106E100040F095803B697A6B11461846FFF7B1F94F
:106E20000246FB689A607B6B1C331846FEF719FA22
:106E30000246FB68DA60FB680022DA623A69FB68A6
:106E40001A603B69DA88FB689A80FB68FA791A75E0
:106E5000FB6800225A75FB6800221A62FB68002258
:106E60009A61FB6830334FF4007200211846FEF738
:106E70007FFAFB7903F02003002B60D0FB68DB680E
:106E8000002B5CD0FB68DA68FB689A613B695B8920
:106E90005B02BB64FB689B68BB65FB68DB687B656A
:106EA00016E0FB68B96D1846FEF720FDB865BB6DAE
:106EB000012B02D8022387F85F30BB6DB3F1FF3F8F
:106EC00002D1012387F85F307A6DBB6CD31A7B65E2
:106ED00097F85F30002B03D17A6DBB6C9A42E0D8F3
:106EE000FB68BA6DDA6197F85F30002B27D17B6DB4
:106EF000C3F30803002B22D03B69B96D1846FEF797
:106F0000D7FC78647B6C002B03D1022387F85F30B9
:106F100015E07B6D5A0A7B6C1A44FB681A623B6968
:106F20005878FB6803F13001FB681A6A0123FEF709
:106F300023F90346002B02D0012387F85F3097F82E
:106F40005F30002B02D0FB6800221A6097F85F3098
:106F500018466037BD4680BD80B58EB000AFF86082
:106F6000B9607A603B60BB687B623B6800221A6054
:106F7000FB6807F1140211461846FFF7B3FD0346FC
:106F800087F8373097F83730002B07D1FB685B7DE7
:106F900087F8373097F83730002B02D097F8373022
:106FA00015E1FB681B7D03F00103002B01D10723D2
:106FB0000DE1FB68DA68FB689B69D31A3B627A686B
:106FC0003B6A9A4240F2FE803B6A7B60FAE0FB68D3
:106FD0009B69C3F30803002B40F0C680FB689B69E4
:106FE0005B0A7A695289013A1340FB61FB69002B05
:106FF0002FD1FB689B69002B03D1FB689B683B6327
:1070000013E0FB68DB6A002B07D0FB689B6919461D
:10701000F868FEF7FCFE386307E0FA68FB68DB6996
:1070200019461046FEF762FC38633B6B012B04D80F
:10703000FB6802225A750223C9E03B6BB3F1FF3FA4
:1070400004D1FB6801225A750123C0E0FB683A6B4A
:10705000DA617A69FB68DB6919461046FEF728FC9D
:10706000B861BB69002B04D1FB6802225A75022368
:10707000ADE0BA69FB691344BB617B685B0ABB6224
:10708000BB6A002B39D0FA69BB6A13447A6952890A
:10709000934205D97B695B891A46FB69D31ABB62A7
:1070A0007B695878BB6ABA69796AFEF765F8034666
:1070B000002B04D0FB6801225A75012387E0FB688E
:1070C0001B7D5BB2002B14DAFB681A6ABB69D31A0A
:1070D000BA6A9A420DD9FB681A6ABB69D31A5B0275
:1070E0007A6AD018FB6830334FF400721946FEF705
:1070F0001FF9BB6A5B02FB6250E0FB681B6ABA695E
:107100009A422ED0FB681B7D5BB2002B18DA7B699C
:107110005878FB6803F13001FB681A6A0123FEF717
:107120004BF80346002B04D0FB6801225A7501235B
:107130004DE0FB681B7D03F07F03DAB2FB681A7534
:107140007B695878FB6803F130010123BA69FEF7C7
:1071500013F80346002B04D0FB6801225A75012363
:1071600035E0FB68BA691A62FB689B69C3F30803E0
:10717000C3F50073FB62FA6A7B689A4201D97B68A7
:10718000FB62FB6803F13002FB689B69C3F30803F1
:107190001344FA6A1946786AFEF7CAF87A6AFB6AF3
:1071A00013447B62FB689A69FB6A1A44FB689A6124
:1071B0003B681A68FB6A1A443B681A607A68FB6A83
:1071C000D31A7B607B68002B7FF401AF0023184645
:1071D0003837BD4680BD80B58CB000AFF860B9606F
:1071E0007A603B60BB68FB613B6800221A60FB6809
:1071F00007F1100211461846FFF774FC034687F8A2
:107200002F3097F82F30002B07D1FB685B7D87F874
:107210002F3097F82F30002B02D097F82F304BE10A
:10722000FB681B7D03F00203002B01D1072343E120
:10723000FB689A697B681A44FB689B699A4280F0F4
:107240002D81FB689B69DB437B6027E1FB689B69C1
:10725000C3F30803002B40F0E380FB689B695B0AE3
:107260003A695289013A1340BB61BB69002B43D193
:10727000FB689B69002B0CD1FB689B68BB62BB6AF7
:10728000002B1AD1FB6800211846FEF728FDB862D2
:1072900013E0FB68DB6A002B07D0FB689B6919468B
:1072A000F868FEF7B4FDB86207E0FA68FB68DB69CE
:1072B00019461046FEF713FDB862BB6A002B00F0BA
:1072C000F280BB6A012B04D1FB6802225A750223AB
:1072D000F2E0BB6AB3F1FF3F04D1FB6801225A75AB
:1072E0000123E9E0FB68BA6ADA61FB689B68002B5E
:1072F00002D1FB68BA6A9A60FB681B7D5BB2002B07
:1073000018DA3B695878FB6803F13001FB681A6AA8
:107310000123FDF751FF0346002B04D0FB68012237
:107320005A750123C8E0FB681B7D03F07F03DAB2C6
:10733000FB681A753A69FB68DB6919461046FEF767
:10734000B7FA78617B69002B04D1FB6802225A7579
:107350000223B1E07A69BB6913447B617B685B0AF5
:107360003B623B6A002B3CD0BA693B6A13443A69E2
:107370005289934205D93B695B891A46BB69D31A86
:107380003B623B6958783B6A7A69F969FDF714FFFB
:107390000346002B04D0FB6801225A7501238BE0C1
:1073A000FB681A6A7B69D31A3A6A9A4215D9FB6854
:1073B00003F13000FB681A6A7B69D31A5B02FA6931
:1073C00013444FF400721946FDF7B2FFFB681B7DB2
:1073D00003F07F03DAB2FB681A753B6A5B027B62DB
:1073E0003FE0FB681B6A7A699A4216D0FB689A698B
:1073F000FB68DB689A4210D23B695878FB6803F15E
:10740000300101237A69FDF7B7FE0346002B04D053
:10741000FB6801225A7501234EE0FB687A691A6203
:10742000FB689B69C3F30803C3F500737B627A6A48
:107430007B689A4201D97B687B62FB6803F130026A
:10744000FB689B69C3F3080313447A6AF969184619
:10745000FDF76EFFFB681B7D63F07F03DAB2FB680C
:107460001A75FA697B6A1344FB61FB689A697B6A47
:107470001A44FB689A61FB68DA68FB689B699A4268
:1074800038BF1A46FB68DA603B681A687B6A1A44A0
:107490003B681A607A687B6AD31A7B607B68002B32
:1074A0007FF4D4AE00E000BFFB681B7D43F04003D7
:1074B000DAB2FB681A75002318463037BD4680BD26
:1074C00080B586B000AF78607B6807F1080211468E
:1074D0001846FFF707FB0346FB75FB7D002B68D1C1
:1074E0007B681B7D03F04003002B62D07B681B7D13
:1074F0005BB2002B15DABB6858787B6803F130016A
:107500007B681A6A0123FDF757FE0346002B01D062
:1075100001234FE07B681B7D03F07F03DAB27B68B9
:107520001A75FDF7CBF83861BA687B685B6A194653
:107530001046FEF721F90346FB75FB7D002B38D181
:107540007B689B6AFB60FB680B331A78FB680B3324
:1075500042F02002D2B21A707B6818687B689B6880
:107560001A46F968FEF72CFEFB6803F11C027B68E3
:10757000DB6819461046FDF7B0FEFB681633396923
:107580001846FDF7AAFEFB68123300211846FDF7E6
:107590008AFEBB680122DA70BB681846FEF71AF94A
:1075A0000346FB757B681B7D23F04003DAB27B68E2
:1075B0001A75FB7D18461837BD4680BD80B584B06E
:1075C00000AF78607868FFF77BFF0346FB73FB7BB7
:1075D000002B18D17B6807F1080211461846FFF707
:1075E00081FA0346FB73FB7B002B0CD17B681B6984
:1075F0001846FEF71FF80346FB73FB7B002B02D1F6
:107600007B6800221A60FB7B18461037BD4680BDA0
:1076100080B592B000AFF860B9607A6007F12801D8
:1076200007F10C0300221846FFF710F8034687F80D
:10763000473097F84730002B40F09980BA6A7B6852
:107640001A60BB6A1A69BB6A5B69023B9A4204D83A
:10765000BB6A1A69BB681A6089E000233B64BB6A95
:107660001B78012B28D10223FB63BB6A7B6107F1E6
:107670001403F96B1846FEF739F9F862FB6AB3F1A7
:10768000FF3F03D1012387F8473063E0FB6A012BFA
:1076900003D1022387F847305CE0FB6A002B02D15C
:1076A0003B6C01333B64FB6B0133FB63BB6A5B697F
:1076B000FA6B9A42DBD34DE0BB6A5B69FB63BB6A42
:1076C0001B6ABB6300237B6300233B637B6B002B44
:1076D00013D1B86ABB6B5A1CBA631946FEF74CF853
:1076E000034687F8473097F84730002B31D1BB6A03
:1076F00030333B634FF400737B63BB6A1B78022B10
:107700000FD1386BFDF796FD0346002B02D13B6C81
:1077100001333B643B6B02333B637B6B023B7B631C
:1077200010E0386BFDF79DFD034623F07043002BFE
:1077300002D13B6C01333B643B6B04333B637B6B9B
:10774000043B7B63FB6B013BFB63FB6B002BBDD1FD
:1077500000E000BFBB683A6C1A60BB6A3A6C1A6101
:10776000BB6A1A79BB6A42F00102D2B21A7197F869
:10777000473018464837BD4680BD80B588B000AF59
:10778000F860B9607A600023FB61FB68BB611BE0B5
:1077900007F1100307F1140101227868FFF7DCFB01
:1077A0003B69012B16D13B7DFB75FB7D0D2B00D179
:1077B0000AE0BB695A1CBA61FA7D1A70FB69013391
:1077C000FB61FB7D0A2B07D0BB68013BFA699A423B
:1077D000DEDB02E000BF00E000BFBB6900221A70E0
:1077E000FB69002B01D0FB6800E00023184620371E
:1077F000BD4680BD80B584B000AF78600B46FB709D
:10780000FB780A2B03D10D217868FFF7F3FF7B6823
:107810005B68FB60FB68002B25DBFB685A1CFA6089
:107820007A681344FA781A73FB683C2B12DD7B6884
:1078300018687B6803F10C01FA6807F10803FFF789
:10784000CAFCBA68FB689A4201D1002301E04FF0FC
:10785000FF33FB607B68FA685A607B689B685A1C40
:107860007B689A6000E000BF1037BD4680BD80B5E0
:1078700084B000AF78607B685B68002B16DB7B68A8
:1078800018687B6803F10C017B685B681A4607F196
:107890000C03FFF7A0FC0346002B07D17B685B6855
:1078A000FA68934202D17B689B6801E04FF0FF3396
:1078B00018461037BD4680BD80B483B000AF7860F5
:1078C00039607B683A681A607B6800225A607B687E
:1078D0005A687B689A6000BF0C37BD4680BC704711
:1078E00080B596B000AF7860396007F10C03396855
:1078F0001846FFF7E1FF09E07B685A1C7A601A78A6
:1079000007F10C0311461846FFF774FF7B681B78DC
:10791000002BF1D107F10C031846FFF7A8FF03462F
:1079200018465837BD4680BD80B487B000AFF860B8
:10793000B9601346FB710123FB750023BB751E4B19
:107940005B7ADBB2002B31D11B4B5B7ADBB21A4680
:10795000194B00219954184B5B7ADBB2164A9B00F5
:107960001344FA685A60144B5B7ADBB21A46124B26
:107970001344FA791A72104B5B7ADBB25A1CD1B2FB
:107980000D4A5172BB75BB7D3033DAB2BB681A70D9
:10799000BB6801333A221A70BB6802332F221A7077
:1079A000BB68033300221A700023FB75FB7D184669
:1079B0001C37BD4680BC7047D800002080B582B01F
:1079C00000AF78603960002239687868FFF7ACFF53
:1079D000034618460837BD4680BD000080B485B018
:1079E00000AFEFF30583BB60BB68002B0FD1EFF353
:1079F00010837B607B68002B09D1104B1B68022B26
:107A000009D1EFF311833B603B68002B03D06FF08B
:107A10000503FB600CE0094B1B68002B05D1074BED
:107A200001221A600023FB6002E04FF0FF33FB608D
:107A3000FB6818461437BD4680BC7047E400002040
:107A400080B584B000AFEFF30583BB60BB68002B4B
:107A50000FD1EFF310837B607B68002B09D1114BB2
:107A60001B68022B09D1EFF311833B603B68002BAD
:107A700003D06FF00503FB600EE00A4B1B68012B7F
:107A800007D1084B02221A6001F078F80023FB604E
:107A900002E04FF0FF33FB60FB6818461037BD462D
:107AA00080BD00BFE400002080B592B004AFF86054
:107AB000B9607A6000237B61EFF305837B627B6AA8
:107AC000002B40F09480EFF310833B623B6A002B65
:107AD00040F08D80484B1B68022B06D1EFF31183D9
:107AE000FB61FB69002B40F08280FB68002B7ED09D
:107AF00080233B631823FB620023FB7607F11B0303
:107B00007B634FF0FF33BB627B68002B45D07B6803
:107B10001B68002B02D07B681B687B637B689B69BA
:107B2000002B02D07B689B69FB62FB6A002B08D0AC
:107B3000FB6A382B05D87B685B6803F00103002BD8
:107B400001D0002354E07B685B69002B03D07B6885
:107B50005B699B083B637B689B68002B0ED07B684E
:107B6000DB685B2B0AD97B681B69002B06D07B681E
:107B70005B69002B02D00123BB6210E07B689B682D
:107B8000002B0CD17B68DB68002B08D17B681B695C
:107B9000002B04D10023BB6201E00023BB62BB6A5F
:107BA000012B10D17B681B697A689268029201935D
:107BB000FB6A0093BB683A6B796BF86800F012FEC1
:107BC00003467B6113E0BB6A002B10D13B6B9AB27A
:107BD00007F114030193FB6A0093BB68796BF868A3
:107BE00000F05CFE0346012B01D000237B617B6922
:107BF00018463837BD4680BDE400002080B586B009
:107C000000AF7860EFF305833B613B69002B0FD138
:107C1000EFF31083FB60FB68002B09D10D4B1B6851
:107C2000022B09D1EFF31183BB60BB68002B03D09B
:107C30006FF005037B6107E000237B617B68002B0D
:107C400002D0786800F066FF7B6918461837BD4699
:107C500080BD00BFE400002080B485B000AFF860B4
:107C6000B9607A60FB68064A1A60BB68054A1A6008
:107C70007B6880221A6000BF1437BD4680BC704705
:107C8000E80000204401002080B485B000AFF86017
:107C9000B9607A60FB68074A1A60BB68064A1A60D6
:107CA0007B684FF480721A6000BF1437BD4680BCF9
:107CB000704700BF44030020A003002080B483B0BD
:107CC00000AF78607B6803F108027B685A607B68CC
:107CD0004FF0FF329A607B6803F108027B68DA603C
:107CE0007B6803F108027B681A617B6800221A60D6
:107CF00000BF0C37BD4680BC704780B483B000AF76
:107D000078607B6800221A6100BF0C37BD4680BCDA
:107D1000704780B485B000AF786039607B685B687D
:107D2000FB603B68FA685A60FB689A683B689A6037
:107D3000FB689B683A685A60FB683A689A603B68DF
:107D40007A681A617B681B685A1C7B681A6000BFDE
:107D50001437BD4680BC704780B485B000AF7860F2
:107D600039603B681B68BB60BB68B3F1FF3F03D160
:107D70007B681B69FB600CE07B680833FB6002E0FA
:107D8000FB685B68FB60FB685B681B68BA689A42CB
:107D9000F6D2FB685A683B685A603B685B683A6891
:107DA0009A603B68FA689A60FB683A685A603B6878
:107DB0007A681A617B681B685A1C7B681A6000BF6E
:107DC0001437BD4680BC704780B485B000AF786082
:107DD0007B681B69FB607B685B687A6892689A6065
:107DE0007B689B687A6852685A60FB685B687A684F
:107DF0009A4203D17B689A68FB685A607B680022CC
:107E00001A61FB681B685A1EFB681A60FB681B68D6
:107E100018461437BD4680BC7047000080B584B05A
:107E200000AF786039607B68FB60FB68002B0AD18B
:107E30004FF0500383F31188BFF36F8FBFF34F8F61
:107E4000BB6000BFFEE701F0C9FFFB681A68FB6872
:107E5000DB6BF968096C01FB03F31A44FB685A6099
:107E6000FB6800229A63FB681A68FB689A60FB68EB
:107E70001A68FB68DB6B013BF968096C01FB03F3D3
:107E80001A44FB68DA60FB68FF2283F84420FB6831
:107E9000FF2283F845203B68002B14D1FB681B6947
:107EA000002B1AD0FB681033184601F0F1F8034696
:107EB000002B12D00C4B4FF080521A60BFF34F8F43
:107EC000BFF36F8F09E0FB6810331846FFF7F6FE2B
:107ED000FB6824331846FFF7F1FE01F0AFFF0123E2
:107EE00018461037BD4680BD04ED00E080B58EB069
:107EF00002AFF860B9607A603B60FB68002B0AD182
:107F00004FF0500383F31188BFF36F8FBFF34F8F90
:107F1000BB6200BFFEE73B68002B0AD14FF0500365
:107F200083F31188BFF36F8FBFF34F8F7B6200BF66
:107F3000FEE77B68002B02D0BB68002B01D0012339
:107F400000E00023002B0AD14FF0500383F3118887
:107F5000BFF36F8FBFF34F8F3B6200BFFEE77B68BD
:107F6000002B02D1BB68002B01D1012300E00023CC
:107F7000002B0AD14FF0500383F31188BFF36F8FAA
:107F8000BFF34F8FFB6100BFFEE750237B617B692E
:107F9000502B0AD04FF0500383F31188BFF36F8F3B
:107FA000BFF34F8FBB6100BFFEE73B68FB62FB6A1C
:107FB000002B0DD0FB6A012283F8462097F8382069
:107FC000FB6A009313467A68B968F86800F005F810
:107FD000FB6A18463037BD4680BD80B584B000AF1F
:107FE000F860B9607A60FB70BB68002B03D1BB6995
:107FF000BA691A6002E0BB697A681A60BB69FA68FC
:10800000DA63BB69BA681A640121B869FFF706FF31
:10801000BB69FA7883F84C2000BF1037BD4680BD9D
:1080200080B58EB000AFF860B9607A603B60002325
:108030007B63FB683B633B6B002B0AD14FF0500323
:1080400083F31188BFF36F8FBFF34F8FBB6200BF05
:10805000FEE7BB68002B03D13B6B1B6C002B01D1EF
:10806000012300E00023002B0AD14FF0500383F3DB
:108070001188BFF36F8FBFF34F8F7B6200BFFEE7A6
:108080003B68022B03D13B6BDB6B012B01D101233E
:1080900000E00023002B0AD14FF0500383F3118836
:1080A000BFF36F8FBFF34F8F3B6200BFFEE701F05E
:1080B000B1F90346002B02D17B68002B01D10123CB
:1080C00000E00023002B0AD14FF0500383F3118806
:1080D000BFF36F8FBFF34F8FFB6100BFFEE701F06F
:1080E0007DFE3B6B9A6B3B6BDB6B9A4202D33B682A
:1080F000022B29D13A68B968386B00F007FAF862A8
:108100003B6B5B6A002B10D03B6B2433184600F0AE
:10811000BFFF0346002B13D03F4B4FF080521A6035
:10812000BFF34F8FBFF36F8F0AE0FB6A002B07D0BE
:10813000394B4FF080521A60BFF34F8FBFF36F8FF0
:1081400001F07CFE012363E07B68002B03D101F08A
:1081500075FE00235CE07B6B002B06D107F1140356
:10816000184600F0F9FF01237B6301F067FE00F081
:108170006BFD01F033FE3B6B93F844305BB2B3F11F
:10818000FF3F03D13B6B002283F844203B6B93F805
:1081900045305BB2B3F1FF3F03D13B6B002283F864
:1081A000452001F04BFE3A1D07F114031146184615
:1081B00000F0E8FF0346002B24D1386B00F09EFA54
:1081C0000346002B18D03B6B10337A6811461846D3
:1081D00000F00EFF386B00F029FA00F043FD034673
:1081E000002B7FF47CAF0C4B4FF080521A60BFF332
:1081F0004F8FBFF36F8F72E7386B00F017FA00F004
:1082000031FD6CE7386B00F011FA00F02BFD002314
:1082100018463837BD4680BD04ED00E080B58EB00D
:1082200000AFF860B9607A603B60FB683B633B6B12
:10823000002B0AD14FF0500383F31188BFF36F8FE7
:10824000BFF34F8F7B6200BFFEE7BB68002B03D1FB
:108250003B6B1B6C002B01D1012300E00023002BA2
:108260000AD14FF0500383F31188BFF36F8FBFF330
:108270004F8F3B6200BFFEE73B68022B03D13B6B95
:10828000DB6B012B01D1012300E00023002B0AD17D
:108290004FF0500383F31188BFF36F8FBFF34F8FFD
:1082A000FB6100BFFEE701F05BFEEFF311824FF0D0
:1082B000500383F31188BFF36F8FBFF34F8FBA6101
:1082C0007B61BB69FB623B6B9A6B3B6BDB6B9A42DE
:1082D00002D33B68022B2CD13B6B93F8453087F8D7
:1082E0002B303A68B968386B00F010F997F92B30E9
:1082F000B3F1FF3F12D13B6B5B6A002B16D03B6B97
:108300002433184600F0C4FE0346002B0ED07B68D1
:10831000002B0BD07B6801221A6007E097F82B3006
:108320000133DBB25AB23B6B83F8452001237B63F8
:1083300001E000237B63FB6A3B613B6983F31188A7
:1083400000BF7B6B18463837BD4680BD80B58CB00A
:1083500000AFF860B9607A600023FB62FB68BB6223
:10836000BB6A002B0AD14FF0500383F31188BFF38F
:108370006F8FBFF34F8F3B6200BFFEE7BB68002BE0
:1083800003D1BB6A1B6C002B01D1012300E0002349
:10839000002B0AD14FF0500383F31188BFF36F8F86
:1083A000BFF34F8FFB6100BFFEE701F033F80346D8
:1083B000002B02D17B68002B01D1012300E00023B8
:1083C000002B0AD14FF0500383F31188BFF36F8F56
:1083D000BFF34F8FBB6100BFFEE701F0FFFCBB6A3C
:1083E0009B6B7B627B6A002B1FD0B968B86A00F078
:1083F000F7F87B6A5A1EBB6A9A63BB6A1B69002B3B
:108400000FD0BB6A1033184600F042FE0346002B23
:1084100007D03D4B4FF080521A60BFF34F8FBFF330
:108420006F8F01F00BFD012369E07B68002B03D106
:1084300001F004FD002362E0FB6A002B06D107F186
:108440001003184600F088FE0123FB6201F0F6FCE1
:1084500000F0FAFB01F0C2FCBB6A93F844305BB257
:10846000B3F1FF3F03D1BB6A002283F84420BB6A0B
:1084700093F845305BB2B3F1FF3F03D1BB6A0022F2
:1084800083F8452001F0DAFC3A1D07F1100311468C
:10849000184600F077FE0346002B23D1B86A00F09F
:1084A00017F90346002B17D0BB6A24337A681146AC
:1084B000184600F09DFDB86A00F0B8F800F0D2FB55
:1084C0000346002B89D1104B4FF080521A60BFF346
:1084D0004F8FBFF36F8F80E7B86A00F0A7F800F006
:1084E000C1FB7AE7B86A00F0A1F800F0BBFBB86AFC
:1084F00000F0EEF80346002B3FF46FAF0023184660
:108500003037BD4680BD00BF04ED00E080B586B0C9
:1085100000AFF860B9607A6000237B61FB689B6BF9
:108520003B61FB681B6C002B0DD1FB681B68002BAB
:108530004DD1FB685B68184600F08AFF7861FB68E4
:1085400000225A6043E07B68002B19D1FB689868D1
:10855000FB681B6C1A46B96801F042FFFB689A6819
:10856000FB681B6C1A44FB689A60FB689A68FB689E
:108570005B689A422BD3FB681A68FB689A6026E016
:10858000FB68D868FB681B6C1A46B96801F028FFC5
:10859000FB68DA68FB681B6C5B421A44FB68DA60B4
:1085A000FB68DA68FB681B689A4207D2FB685A6866
:1085B000FB681B6C5B421A44FB68DA607B68022B29
:1085C00005D13B69002B02D03B69013B3B613B6914
:1085D0005A1CFB689A637B6918461837BD4680BDF4
:1085E00080B582B000AF786039607B681B6C002B6F
:1085F00018D07B68DA687B681B6C1A447B68DA6089
:108600007B68DA687B685B689A4203D37B681A6888
:108610007B68DA607B68D9687B681B6C1A463868AF
:1086200001F0DEFE00BF0837BD4680BD80B584B0D6
:1086300000AF786001F0D2FB7B6893F84530FB73A4
:1086400011E07B685B6A002B12D07B6824331846EC
:1086500000F01EFD0346002B01D000F0F5FDFB7B72
:10866000013BDBB2FB7397F90F30002BE9DC00E034
:1086700000BF7B68FF2283F8452001F0DFFB01F09B
:10868000ADFB7B6893F84430BB7311E07B681B69DA
:10869000002B12D07B681033184600F0F9FC03461B
:1086A000002B01D000F0D0FDBB7B013BDBB2BB73E4
:1086B00097F90E30002BE9DC00E000BF7B68FF2259
:1086C00083F8442001F0BAFB00BF1037BD4680BDDF
:1086D00080B584B000AF786001F080FB7B689B6B55
:1086E000002B02D10123FB6001E00023FB6001F0BD
:1086F000A5FBFB6818461037BD4680BD80B584B029
:1087000000AF786001F06AFB7B689A6B7B68DB6B7B
:108710009A4202D10123FB6001E00023FB6001F0DB
:108720008DFBFB6818461037BD4680BD80B485B010
:1087300000AF786039600023FB6014E00E4AFB68EC
:1087400052F83330002B0BD10B49FB683A6841F8E3
:108750003320094AFB68DB0013447A685A6006E05C
:10876000FB680133FB60FB68072BE7D900BF00BF44
:108770001437BD4680BC70479427002080B586B072
:1087800000AFF860B9607A60FB687B6101F026FB9E
:108790007B6993F844305BB2B3F1FF3F03D17B694F
:1087A000002283F844207B6993F845305BB2B3F133
:1087B000FF3F03D17B69002283F8452001F03EFB97
:1087C0007B699B6B002B06D17B6924337A68B9687F
:1087D000184600F031FC7869FFF728FF00BF183712
:1087E000BD4680BD80B58EB004AFF860B9607A60D8
:1087F0003B607B6B002B0AD14FF0500383F3118851
:10880000BFF36F8FBFF34F8F3B6200BFFEE7BB6BC1
:10881000002B0AD14FF0500383F31188BFF36F8F01
:10882000BFF34F8FFB6100BFFEE75C233B613B69F9
:108830005C2B0AD04FF0500383F31188BFF36F8F86
:10884000BFF34F8FBB6100BFFEE7BB6B002B1ED099
:108850007B6B002B1BD0BB6B7B627B6A7A6B1A63D2
:108860007B6A022283F85920002303937B6A0293D8
:1088700007F1140301933B6B00933B687A68B96876
:10888000F86800F050F8786A00F0D4F801E00023AE
:108890007B617B6918462837BD4680BD80B58CB0AA
:1088A00004AFF860B9603B601346FB80FB889B0017
:1088B000184601F093FB78617B69002B0ED05C2099
:1088C00001F08CFBF861FB69002B03D0FB697A692E
:1088D0001A6305E0786901F045FC01E00023FB61C3
:1088E000FB69002B17D0FB69002283F85920FA8816
:1088F00000230393FB690293FB6A0193BB6A009315
:108900003B68B968F86800F00EF8F86900F092F872
:108910000123BB6102E04FF0FF33BB61BB69184626
:108920002037BD4680BD80B588B000AFF860B96023
:108930007A603B603B6B186B7B689B001A46A521F5
:1089400001F05CFD3B6B1A6B7B6803F18043013BDC
:108950009B001344BB61BB6923F00703BB61BB6988
:1089600003F00703002B0AD04FF0500383F3118864
:10897000BFF36F8FBFF34F8F7B6100BFFEE7002314
:10898000FB6112E0BA68FB69134419783A6BFB6922
:10899000134434330A461A70BA68FB6913441B78CF
:1089A000002B06D0FB690133FB61FB690F2BE9D972
:1089B00000E000BF3B6B002283F84320BB6A372BEB
:1089C00001D93723BB623B6BBA6ADA623B6BBA6A86
:1089D000DA643B6B00221A653B6B04331846FFF7E1
:1089E0008CF93B6B18331846FFF787F93B6B3A6BF2
:1089F0001A61BB6AC3F138023B6B9A613B6B3A6BFD
:108A00005A623B6B00225A653B6B002283F8582068
:108A10003A68F968B86901F0EFF802463B6B1A60F2
:108A2000FB6A002B02D0FB6A3A6B1A6000BF20374A
:108A3000BD4680BD80B582B000AF786001F0CEF950
:108A40002D4B1B6801332C4A13602C4B1B68002BE9
:108A500009D12A4A7B681360274B1B68012B10D170
:108A600000F016FC0DE0264B1B68002B09D1234BB0
:108A70001B68DA6A7B68DB6A9A4202D81F4A7B6805
:108A80001360204B1B6801331E4A13601D4B1A688C
:108A90007B685A647B68DA6A1B4B1B689A4203D96D
:108AA0007B68DB6A184A13607B68DA6A13469B00AE
:108AB00013449B00154A1A447B6804331946104638
:108AC000FFF727F901F0BAF90D4B1B68002B0ED008
:108AD0000A4B1B68DA6A7B68DB6A9A4207D20C4B46
:108AE0004FF080521A60BFF34F8FBFF36F8F00BFFC
:108AF0000837BD4680BD00BF740C0020A0070020D1
:108B0000800C0020900C00207C0C0020A40700208A
:108B100004ED00E080B584B000AF78600023FB6016
:108B20007B68002B17D0134B1B68002B0AD04FF02B
:108B3000500383F31188BFF36F8FBFF34F8FBB6078
:108B400000BFFEE700F080F80021786800F0EEFC3E
:108B500000F088F8F860FB68002B07D1064B4FF057
:108B600080521A60BFF34F8FBFF36F8F00BF103773
:108B7000BD4680BD9C0C002004ED00E080B58AB0AD
:108B800004AF0023BB6000237B603A46391D07F128
:108B900008031846FFF760F839687B68BA680292E4
:108BA00001930023009300230A4621492148FFF73F
:108BB00019FE0346204A13601F4B1B68002B02D08E
:108BC00001237B6101E000237B617B69012B02D1E2
:108BD00000F000FD78617B69012B16D14FF0500346
:108BE00083F31188BFF36F8FBFF34F8F3B6100BFDB
:108BF000124B4FF0FF321A60114B01221A60114BD9
:108C000000221A6001F078F80EE07B69B3F1FF3FB3
:108C10000AD14FF0500383F31188BFF36F8FBFF376
:108C20004F8FFB6000BFFEE700BF1837BD4680BD19
:108C3000B0B4000861920008980C0020940C002049
:108C4000800C0020780C002080B400AF044B1B681F
:108C50000133034A136000BFBD4680BC704700BFAC
:108C60009C0C002080B584B000AF0023FB60002383
:108C7000BB60424B1B68002B0AD14FF0500383F3BB
:108C80001188BFF36F8FBFF34F8F3B6000BFFEE7CC
:108C900001F0A4F8394B1B68013B384A1360374B8D
:108CA0001B68002B62D1364B1B68002B5ED02FE077
:108CB000344BDB68DB68FB60FB6818331846FFF752
:108CC00083F8FB6804331846FFF77EF8FB68DA6A1E
:108CD0002D4B1B689A4203D9FB68DB6A2A4A136052
:108CE000FB68DA6A13469B0013449B00274A1A4428
:108CF000FB68043319461046FFF70BF8FB68DA6A85
:108D0000234B1B68DB6A9A4202D3224B01221A6072
:108D10001C4B1B68002BCBD1FB68002B01D000F053
:108D200055FB1D4B1B687B607B68002B10D000F04F
:108D300045F80346002B02D0164B01221A607B68CF
:108D4000013B7B607B68002BF1D1134B00221A6042
:108D5000104B1B68002B09D00123BB600F4B4FF059
:108D600080521A60BFF34F8FBFF36F8F01F066F828
:108D7000BB6818461037BD4680BD00BF9C0C002064
:108D8000740C0020340C00207C0C0020A407002070
:108D9000A0070020880C0020840C002004ED00E0D7
:108DA00080B483B000AF044B1B687B607B681846BF
:108DB0000C37BD4680BC7047780C002080B586B06B
:108DC00000AF00237B61514B1B68002B40F08E806D
:108DD0004F4B1B6801333B614D4A3B6913603B6954
:108DE000002B20D14B4B1B681B68002B0AD04FF087
:108DF000500383F31188BFF36F8FBFF34F8F3B6036
:108E000000BFFEE7434B1B68FB60434B1B68414AB6
:108E10001360414AFB681360404B1B6801333F4AB3
:108E2000136000F0D3FA3E4B1B683A699A424ED366
:108E3000384B1B681B68002B01D1012300E0002385
:108E4000002B04D0364B4FF0FF321A603FE0314B1D
:108E50001B68DB68DB68BB60BB685B687B603A698A
:108E60007B689A4203D22E4A7B6813602FE0BB686E
:108E700004331846FEF7A8FFBB689B6A002B04D09A
:108E8000BB6818331846FEF79FFFBB68DA6A254BAC
:108E90001B689A4203D9BB68DB6A224A1360BB682D
:108EA000DA6A13469B0013449B001F4A1A44BB68AE
:108EB000043319461046FEF72CFFBB68DA6A1B4BD9
:108EC0001B68DB6A9A42B3D301237B61B0E7174B7F
:108ED0001B68DA6A144913469B0013449B000B4439
:108EE0001B68012B07D901237B6104E0104B1B6831
:108EF00001330F4A13600F4B1B68002B01D0012375
:108F00007B617B6918461837BD4680BD9C0C0020EC
:108F1000780C00202C0C0020300C00208C0C002041
:108F2000940C00207C0C0020A4070020A007002047
:108F3000840C0020880C002080B485B000AF274B43
:108F40001B68002B03D0264B01221A6041E0244B02
:108F500000221A60234B1B68FB6010E0FB68002BAB
:108F60000AD14FF0500383F31188BFF36F8FBFF323
:108F70004F8F7B6000BFFEE7FB68013BFB601A4937
:108F8000FA6813469B0013449B000B441B68002B9C
:108F9000E4D0FA6813469B0013449B00124A134422
:108FA000BB60BB685B685A68BB685A60BB685A683C
:108FB000BB6808339A4204D1BB685B685A68BB68D7
:108FC0005A60BB685B68DB68084A1360054AFB6847
:108FD000136000BF1437BD4680BC70479C0C002056
:108FE000880C00207C0C0020A4070020A007002093
:108FF00080B584B000AF786039607B68002B0AD1FF
:109000004FF0500383F31188BFF36F8FBFF34F8F7F
:10901000FB6000BFFEE7074B1B68183319467868F2
:10902000FEF79AFE0121386800F080FA00BF103781
:10903000BD4680BDA007002080B586B000AFF860B7
:10904000B9607A60FB68002B0AD14FF0500383F3BC
:109050001188BFF36F8FBFF34F8F7B6100BFFEE7B7
:109060000A4B1B6818331946F868FEF752FE7B68F6
:10907000002B02D04FF0FF33BB607968B86800F076
:1090800055FA00BF1837BD4680BD00BFA0070020BD
:1090900080B586B000AF78607B68DB68DB683B61D9
:1090A0003B69002B0AD14FF0500383F31188BFF3C3
:1090B0006F8FBFF34F8FFB6000BFFEE73B69183334
:1090C0001846FEF781FE1E4B1B68002B1DD13B6925
:1090D00004331846FEF778FE3B69DA6A194B1B68C1
:1090E0009A4203D93B69DB6A164A13603B69DA6A24
:1090F00013469B0013449B00134A1A443B690433F4
:1091000019461046FEF705FE05E03B69183319467F
:109110000E48FEF7FEFD3B69DA6A0D4B1B68DB6A01
:109120009A4205D901237B610A4B01221A6001E0B2
:1091300000237B617B6918461837BD4680BD00BFA0
:109140009C0C00207C0C0020A4070020340C002084
:10915000A0070020880C002080B483B000AF7860A6
:10916000064B1A687B681A60054B1A687B685A6060
:1091700000BF0C37BD4680BC704700BF8C0C002080
:10918000780C002080B588B000AF786039607B68CB
:10919000002B0AD14FF0500383F31188BFF36F8F78
:1091A000BFF34F8F3B6100BFFEE73B68002B0AD146
:1091B0004FF0500383F31188BFF36F8FBFF34F8FCE
:1091C000FB6000BFFEE700F009FE1D4B1B68BB61A2
:1091D0007B685B68BA69D31A7B613B681B68B3F133
:1091E000FF3F02D10023FB6123E07B681A68154B27
:1091F0001B689A4207D07B685B68BA699A4202D3BF
:109200000123FB6115E03B681B687A699A420BD227
:109210003B681A687B69D21A3B681A607868FFF766
:109220009BFF0023FB6104E03B6800221A600123DE
:10923000FB6100F003FEFB6918462037BD4680BD88
:10924000780C00208C0C002080B400AF034B01226E
:109250001A6000BFBD4680BC704700BF880C00206C
:1092600080B582B000AF786000F052F8064B1B6802
:10927000012BF9D9054B4FF080521A60BFF34F8F85
:10928000BFF36F8FF0E700BFA407002004ED00E0FC
:1092900080B582B000AF00237B600CE07A68134693
:1092A0009B0013449B00124A13441846FEF706FD28
:1092B0007B6801337B607B68372BEFD90D48FEF765
:1092C000FDFC0D48FEF7FAFC0C48FEF7F7FC0C48D5
:1092D000FEF7F4FC0B48FEF7F1FC0B4B054A1A6055
:1092E0000A4B054A1A6000BF0837BD4680BD00BF63
:1092F000A4070020040C0020180C0020340C0020CF
:10930000480C0020600C00202C0C0020300C0020A9
:1093100080B582B000AF19E000F060FD104BDB6853
:10932000DB687B607B6804331846FEF74DFD0D4B10
:109330001B68013B0B4A13600B4B1B68013B0A4A3D
:10934000136000F07BFD786800F010F8064B1B6896
:10935000002BE1D100BF00BF0837BD4680BD00BF74
:10936000480C0020740C00205C0C002080B584B0F8
:1093700000AF78607B6893F85930002B08D17B6888
:109380001B6B184600F0EEFE786800F0EBFE18E06C
:109390007B6893F85930012B03D1786800F0E2FE26
:1093A0000FE07B6893F85930022B0AD04FF050033E
:1093B00083F31188BFF36F8FBFF34F8FFB6000BF44
:1093C000FEE700BF1037BD4680BD000080B483B00B
:1093D00000AF0E4B1B681B68002B01D1012300E07E
:1093E0000023002B04D00A4B4FF0FF321A6008E034
:1093F000064B1B68DB68DB687B607B685B68044A44
:10940000136000BF0C37BD4680BC70472C0C002099
:10941000940C002080B483B000AF0B4B1B68002B72
:1094200002D101237B6008E0084B1B68002B02D1AE
:1094300002237B6001E000237B607B6818460C37C9
:10944000BD4680BC704700BF800C00209C0C0020F3
:1094500080B586B000AF78607B683B6100237B619C
:109460007B68002B56D02E4B1B683A699A420AD073
:109470004FF0500383F31188BFF36F8FBFF34F8F0B
:10948000FB6000BFFEE73B691B6D002B0AD14FF06C
:10949000500383F31188BFF36F8FBFF34F8FBB600F
:1094A00000BFFEE73B691B6D5A1E3B691A653B69AD
:1094B000DA6A3B69DB6C9A422CD03B691B6D002B4E
:1094C00028D13B6904331846FEF77EFC3B69DA6C11
:1094D0003B69DA623B69DB6AC3F138023B699A6136
:1094E0003B69DA6A0F4B1B689A4203D93B69DB6A16
:1094F0000C4A13603B69DA6A13469B0013449B00D5
:10950000094A1A443B69043319461046FEF701FC28
:1095100001237B617B6918461837BD4680BD00BFBB
:10952000A00700207C0C0020A407002080B584B098
:1095300000AF78603960214B1B68FB60204B1B68D3
:1095400004331846FEF740FC7B68B3F1FF3F0AD1B5
:109550003B68002B07D01A4B1B6804331946194887
:10956000FEF7D7FB26E0FA687B681344BB60144B18
:109570001B68BA685A60BA68FB689A4209D2124BF3
:109580001A680F4B1B68043319461046FEF7E4FBBC
:1095900010E00E4B1A680A4B1B680433194610463C
:1095A000FEF7DAFB0A4B1B68BA689A4202D2084AF5
:1095B000BB68136000BF1037BD4680BD780C00202B
:1095C000A0070020600C0020300C00202C0C002094
:1095D000940C002080B58AB004AF00237B6100F0BA
:1095E000CBFA1C4B1B68002B21D00023FB6000230F
:1095F000BB603A1D07F1080107F10C031846FEF79E
:1096000043FB7968BB68FA680292019302230093D6
:1096100000230A4610491148FFF7E4F80346104AB0
:1096200013600F4B1B68002B01D001237B617B690A
:10963000002B0AD14FF0500383F31188BFF36F8FD3
:10964000BFF34F8F3B6100BFFEE77B6918461837B9
:10965000BD4680BDD00C0020B8B40008819700083A
:10966000D40C002080B58AB000AFF860B9607A6091
:109670003B6000237B62FB68002B0AD14FF0500354
:1096800083F31188BFF36F8FBFF34F8F3B6200BF2F
:10969000FEE71A4B1B68002B2AD0BB683B617B6836
:1096A0007B61FB68BB61BB68052B18DCFFF7B2FE72
:1096B0000346022B09D1114B186807F11001002352
:1096C0003A6BFEF7ADFC786212E00C4B186807F1BC
:1096D000100100230022FEF7A3FC786208E0074B8C
:1096E000186807F1100100233A68FEF797FD7862C9
:1096F0007B6A18462837BD4680BD00BFD00C0020CD
:1097000080B588B002AF786039601C4B1B68DB689D
:10971000DB687B617B6904331846FEF755FB7B6988
:10972000DB69012B22D17B699A697B68D1187B6840
:109730003A68786900F0C8F80346002B16D0002379
:10974000009300237A6800217869FFF78BFF386166
:109750003B69002B0AD14FF0500383F31188BFF30C
:109760006F8FBFF34F8FFB6000BFFEE77B695B6AC3
:109770007869984700BF1837BD4680BDC80C0020E7
:1097800080B584B000AF786007F10803184600F098
:1097900057F8F860BB681946F86800F003F800F065
:1097A000D5F8F1E780B584B000AF78603960FFF795
:1097B0004BFA07F10803184600F066F8F860BB683A
:1097C000002B30D13B68002B0AD17A68FB689A42A3
:1097D00006D8FFF747FAF9687868FFF791FF24E0A9
:1097E0003B68002B08D0134B1B681B68002B0CBF79
:1097F00001230023DBB23B600F4B18687A68FB68DB
:10980000D31A3A681946FEF7B9FFFFF72BFA034659
:10981000002B0AD1094B4FF080521A60BFF34F8FD3
:10982000BFF36F8F01E0FFF71DFA00BF1037BD4691
:1098300080BD00BFCC0C0020D00C002004ED00E067
:1098400080B485B000AF78600E4B1B681B68002B9E
:109850000CBF01230023DBB21A467B681A607B68C9
:109860001B68002B05D1074B1B68DB681B68FB607E
:1098700001E00023FB60FB6818461437BD4680BC3E
:10988000704700BFC80C002080B584B000AF78607E
:10989000FFF786FAF8600B4B1B68FA689A4205D20C
:1098A00000F008F97B6801221A6002E07B68002260
:1098B0001A60044AFB681360FB6818461037BD46FF
:1098C00080BD00BFD80C002080B586B000AFF86026
:1098D000B9607A603B6000237B61FB68BA685A60BC
:1098E000FB68FA681A61BA687B689A4212D87A688B
:1098F0003B68D21AFB689B699A4202D301237B61C1
:109900001BE0104B1A68FB68043319461046FEF73B
:1099100023FA12E07A683B689A4206D2BA683B683A
:109920009A4202D301237B6107E0074B1A68FB6868
:10993000043319461046FEF70FFA7B6918461837AC
:10994000BD4680BDCC0C0020C80C002080B58EB078
:1099500002AF9DE07B68002B18DA3B1D0433FB62ED
:10996000FB6A002B0AD14FF0500383F31188BFF339
:109970006F8FBFF34F8FFB6100BFFEE7FB6A1B6871
:10998000FA6A5068FA6A9268114698477B68002B19
:109990007DDBFB68BB62BB6A5B69002B04D0BB6AE2
:1099A00004331846FEF710FA3B461846FFF76CFFE3
:1099B00078627B68092B6BD801A252F823F000BFB4
:1099C000E9990008E9990008E9990008919A0008C6
:1099D000459A00087D9A0008E9990008E99900086D
:1099E000919A0008459A0008BA68BB6A9B69D11829
:1099F000BB687A6AB86AFFF767FF0346002B47D057
:109A0000BB6A5B6AB86A9847BB6ADB69012B3FD1C6
:109A1000BA68BB6A9B691A440023009300230021A3
:109A2000B86AFFF71FFE38623B6A002B30D14FF057
:109A3000500383F31188BFF36F8FBFF34F8FBB6168
:109A400000BFFEE7BA68BB6A9A61BB6A9B69002BDC
:109A50000AD14FF0500383F31188BFF36F8FBFF328
:109A60004F8F7B6100BFFEE7BB6A9A697B6AD118A2
:109A70007B6A7A6AB86AFFF727FF09E0BB6A93F846
:109A80002C30002B04D1B86A00F06CFB00E000BF62
:109A9000074B1B68391D00221846FEF757FC03468A
:109AA000002B7FF457AF00BF00BF3037BD4680BDED
:109AB000D00C002080B588B002AF45E02C4B1B686D
:109AC000DB681B683B612A4B1B68DB68DB68FB605B
:109AD000FB6804331846FEF777F9FB685B6AF868A1
:109AE0009847FB68DB69012B2ED1FB689B693A69BB
:109AF0001344BB60BA683B699A420ED9FB68BA68E6
:109B00005A60FB68FA681A61194B1A68FB680433DB
:109B100019461046FEF720F916E0002300930023B3
:109B20003A690021F868FFF79DFD78607B68002B9B
:109B30000AD14FF0500383F31188BFF36F8FBFF347
:109B40004F8F3B6000BFFEE7094B1B681B68002B73
:109B5000B4D1074B1B687B61064B1B68044A13603A
:109B6000044A7B69136000BF1837BD4680BD00BF43
:109B7000C80C0020CC0C002080B582B002AF00F0F1
:109B80002DF9154B1B68002B20D11448FEF796F8D1
:109B90001348FEF793F8134B104A1A60124B104A01
:109BA0001A6000230093114B114A10210A20FEF77E
:109BB0009DF90346084A1360074B1B68002B05D02C
:109BC000054B1B680B491846FEF7B0FD00F036F94F
:109BD00000BFBD4680BD00BFD00C0020A00C0020FF
:109BE000B40C0020C80C0020CC0C00207C0D002000
:109BF000DC0C0020C0B4000880B485B000AFF86071
:109C0000B9607A60FB68043BFB60FB684FF08072D0
:109C10001A60FB68043BFB60BB6823F00102FB6831
:109C20001A60FB68043BFB60084AFB681A60FB682B
:109C3000143BFB607A68FB681A60FB68203BFB60A2
:109C4000FB6818461437BD4680BC7047519C00081D
:109C500080B485B000AF00237B60124B1B68B3F16A
:109C6000FF3F0AD04FF0500383F31188BFF36F8F8B
:109C7000BFF34F8FFB6000BFFEE74FF0500383F34D
:109C80001188BFF36F8FBFF34F8FBB6000BF00BF62
:109C90007B68002BFCD000BF00BF1437BD4680BCE2
:109CA000704700BF240000200000000000000000FA
:109CB000074B19680868B0E8F00F80F30988BFF314
:109CC0006F8F4FF0000080F311884EF00D0E70473B
:109CD000A007002000BF00BF06480068006880F3AE
:109CE000088862B661B6BFF34F8FBFF36F8F00DF96
:109CF00000BF00BF08ED00E080B584B000AF324B7C
:109D0000FB60FB681B78DBB27B60FB68FF221A708C
:109D1000FB681B78DBB2FB70FB78DBB203F050030F
:109D2000DAB22A4B1A702A4B07221A6009E0284B34
:109D30001B68013B264A1360FB78DBB25B00DBB299
:109D4000FB70FB78DBB203F08003802BEFD0204B5D
:109D50001B68C3F10703042B0AD04FF0500383F3B1
:109D60001188BFF36F8FBFF34F8FBB6000BFFEE75B
:109D7000174B1B681B02164A1360154B1B6803F434
:109D8000E063134A13607B68DAB2FB681A70114B08
:109D90001B68104A43F4700313600E4B1B680D4A96
:109DA00043F07043136000F0B9F80B4B00221A60C7
:109DB000FFF792FFFFF7C0F8FFF74AFF00231846AE
:109DC0001037BD4680BD00BF00E400E0CC0D002090
:109DD000D00D002020ED00E02400002080B483B0EE
:109DE00000AF4FF0500383F31188BFF36F8FBFF3C1
:109DF0004F8F7B6000BF0F4B1B6801330D4A136010
:109E00000C4B1B68012B0FD10B4B1B68DBB2002BDB
:109E10000AD04FF0500383F31188BFF36F8FBFF365
:109E20004F8F3B6000BFFEE700BF0C37BD4680BCD4
:109E3000704700BF2400002004ED00E080B483B030
:109E400000AF114B1B68002B0AD14FF0500383F376
:109E50001188BFF36F8FBFF34F8F7B6000BFFEE7AA
:109E6000094B1B68013B084A1360074B1B68002B1A
:109E700005D100233B603B6883F3118800BF00BF1E
:109E80000C37BD4680BC7047240000200000000055
:109E9000EFF30980BFF36F8F0D4B1A6820E9F00FC5
:109EA00010602DE908404FF0500080F31188FFF753
:109EB00043F84FF0000080F31188BDE808401968AE
:109EC0000868B0E8F00F80F30988BFF36F8F704720
:109ED000A007002000BF00BF80B582B000AF4FF0E8
:109EE000500383F31188BFF36F8FBFF34F8F7B60F5
:109EF00000BFFEF763FF0346002B03D0064B4FF075
:109F000080521A6000233B603B6883F3118800BFD6
:109F100000BF0837BD4680BD04ED00E080B400AF4F
:109F20000A4B00221A600A4B00221A60094B1B6878
:109F3000094AA2FB03239B09084A013B1360034B18
:109F400007221A6000BFBD4680BC704710E000E0E9
:109F500018E000E000000020D34D621014E000E0A3
:109F600080B485B000AFEFF30583FB60FB680F2B77
:109F700014D9164AFB6813441B78FB72144B1B78E8
:109F8000FA7A9A420AD24FF0500383F31188BFF352
:109F90006F8FBFF34F8F7B6000BFFEE70D4B1B68D9
:109FA00003F4E0620C4B1B689A420AD94FF050034D
:109FB00083F31188BFF36F8FBFF34F8F3B6000BFF8
:109FC000FEE700BF1437BD4680BC7047F0E300E0F9
:109FD000CC0D00200CED00E0D00D002080B58AB043
:109FE00000AF78600023FB61FEF72EFE584B1B6824
:109FF000002B01D100F010F9564B1A687B68134012
:10A00000002B40F08E807B68002B1DD008227B68DF
:10A0100013447B607B6803F00703002B14D07B683C
:10A0200023F0070308337B607B6803F00703002BF2
:10A030000AD04FF0500383F31188BFF36F8FBFF343
:10A040004F8F7B6100BFFEE77B68002B69D0424BDE
:10A050001B687A689A4264D8404B3B623F4B1B684E
:10A060007B6204E07B6A3B627B6A1B687B627B6A83
:10A070005B687A689A4203D97B6A1B68002BF1D12E
:10A08000334B1B687A6A9A424BD03B6A1B680822A2
:10A090001344FB617B6A1A683B6A1A607B6A5A68E0
:10A0A0007B68D21A08235B009A421FD97A6A7B68C0
:10A0B0001344BB61BB6903F00703002B0AD04FF0C8
:10A0C000500383F31188BFF36F8FBFF34F8F3B6152
:10A0D00000BFFEE77B6A5A687B68D21ABB695A6088
:10A0E0007B6A7A685A60B86900F0F8F81A4B1A6807
:10A0F0007B6A5B68D31A184A1360174B1A68184BAF
:10A100001B689A4203D2144B1B68154A13607B6A82
:10A110005A68104B1B681A437B6A5A607B6A00229C
:10A120001A60FEF79FFDFB6903F00703002B0AD0BE
:10A130004FF0500383F31188BFF36F8FBFF34F8F3E
:10A14000FB6000BFFEE7FB6918462837BD4680BDAF
:10A15000DC190020E8190020E0190020D4190020A3
:10A16000E419002080B586B000AF78607B687B6121
:10A170007B68002B48D008235B427A6913447B61DB
:10A180007B693B613B695A68214B1B681340002B7C
:10A190000AD14FF0500383F31188BFF36F8FBFF3E1
:10A1A0004F8FFB6000BFFEE73B691B68002B0AD0A6
:10A1B0004FF0500383F31188BFF36F8FBFF34F8FBE
:10A1C000BB6000BFFEE73B695A68114B1B68134038
:10A1D000002B19D03B691B68002B15D13B695A68CD
:10A1E0000B4B1B68DB431A403B695A60FEF72CFDA2
:10A1F0003B695A68074B1B681344064A1360386969
:10A2000000F06CF8FEF72EFD00BF1837BD4680BD8C
:10A21000E8190020E019002080B485B000AF4FF4A9
:10A220004063BB60274BFB60FB6803F00703002B18
:10A230000CD0FB680733FB60FB6823F00703FB606F
:10A24000BA68FB68D31A1F4A1344BB60FB687B6083
:10A250001D4A7B6813601C4B00225A607B68BA68F9
:10A260001344FB600822FB689B1AFB60FB6823F029
:10A270000703FB60FB68154A1360144B1B68002240
:10A280005A60124B1B6800221A607B683B603B6877
:10A29000FA68D21A3B685A600C4B1A683B681A601D
:10A2A0003B685B680A4A13603B685B68094A136055
:10A2B000094B4FF000421A6000BF1437BD4680BC06
:10A2C000704700BFD40D0020D4190020DC190020F5
:10A2D000E4190020E0190020E819002080B485B0BE
:10A2E00000AF7860274BFB6002E0FB681B68FB60F7
:10A2F000FB681B687A689A42F7D8FB68BB60FB680A
:10A300005B68BA6813447A689A4208D1FB685A6855
:10A310007B685B681A44FB685A60FB687B607B68FB
:10A32000BB607B685B68BA681A44FB681B689A422A
:10A3300018D1FB681A68144B1B689A420DD07B68D1
:10A340005A68FB681B685B681A447B685A60FB6844
:10A350001B681A687B681A6008E00B4B1A687B68F8
:10A360001A6003E0FB681A687B681A60FA687B6809
:10A370009A4202D0FB687A681A6000BF1437BD4663
:10A3800080BC7047D4190020DC190020014B1868EC
:10A39000704700BF2800002070B500260C4D0D4C02
:10A3A000641BA410A64209D101F006F800260A4D4C
:10A3B0000A4C641BA410A64205D170BD55F8043B9D
:10A3C00098470136EEE755F8043B98470136F2E727
:10A3D00030B6000830B6000830B6000834B60008C1
:10A3E0000A44914200F1FF3300D1704710B511F8D3
:10A3F000014B914203F8014FF9D110BD03460244CD
:10A40000934200D1704703F8011BF9E70FB40A4BE0
:10A4100013B51C6824B1A36913B9204600F05EFA95
:10A4200005AB2046049AA168019300F029FC02B014
:10A43000BDE8104004B070472800002070B50E46FB
:10A44000054618B183690BB900F048FAAB69AC68EE
:10A4500013B9284600F042FA2C4B9C4220D16C687C
:10A46000636EDB0705D4A389980502D4A06D00F0C4
:10A47000D3FAA38919071DD52369DBB1013EA3686F
:10A4800016F8011F013BA36039BB002B38DA2246C6
:10A490000A21284600F048F8013011D00A2511E0C1
:10A4A0001B4B9C4201D1AC68DAE71A4B9C4208BFB7
:10A4B000EC68D5E72146284600F088F80028DDD072
:10A4C0004FF0FF35636EDA0705D4A3899B0502D4EC
:10A4D000A06D00F0A2FA284670BD002B04DAA26934
:10A4E0009A4206DC0A2904D023685A1C226019709B
:10A4F000C5E72246284600F017F80130BFD1DFE754
:10A500000A2523685A1C22601D70DBE7B4B50008D9
:10A51000D4B5000894B50008024B01461868FFF74F
:10A520008DBF00BF28000020F8B50E461446054632
:10A5300018B183690BB900F0D1F9214B9C422BD1A2
:10A540006C68A369A360A3891A072FD523696BB32D
:10A5500023692068F6B2C01A63693746834204DC77
:10A560002146284600F026F930BBA3680130013BA4
:10A57000A36023685A1C22601E706369834204D062
:10A58000A389DB0706D50A2E04D12146284600F010
:10A5900011F988B93846F8BD0A4B9C4201D1AC6824
:10A5A000CFE7094B9C4208BFEC68CAE72146284622
:10A5B00000F00CF80028CBD04FF0FF37EAE700BFDF
:10A5C000B4B50008D4B5000894B50008324B70B596
:10A5D0001D6806460C4625B1AB6913B9284600F044
:10A5E0007DF92E4B9C420FD16C68A389B4F90C20E5
:10A5F00019072CD4DD0611D40923336042F040033F
:10A600004FF0FF30A3813EE0254B9C4201D1AC6866
:10A61000EBE7244B9C4208BFEC68E6E7580712D5ED
:10A62000616B41B104F14403994202D0304600F01D
:10A6300059FA00236363A38923F02403A381002331
:10A64000636023692360A38943F00803A38123691E
:10A650004BB9A38903F42073B3F5007F03D02146DF
:10A66000304600F0FFF9A089B4F90C2010F0010386
:10A670000AD00023A36063695B42A361236943B9E5
:10A6800010F08000BAD170BD810758BF6369A36024
:10A69000F4E70020F7E700BF28000020B4B5000869
:10A6A000D4B5000894B500088A892DE9F041054623
:10A6B00010070C4658D44B68002B05DC0B6C002BA4
:10A6C00002DC0020BDE8F081E66A002EF9D000230C
:10A6D00012F480522F682B6032D0606DA3895A0724
:10A6E00005D56368C01A636B0BB1236CC01A0023D5
:10A6F0000246E66A2846216AB047431CA38906D170
:10A7000029681D292CD82A4ACA40D60728D50022F4
:10A7100062602269D904226004D5421C01D12B68F1
:10A7200003B96065616B2F600029CAD004F144034E
:10A73000994202D0284600F0D5F900206063C1E7B5
:10A74000216A01232846B047411CC7D12B68002B42
:10A75000C4D01D2B01D0162B01D12F60B1E7A389E6
:10A7600043F04003A381ADE70F69002FA9D0930701
:10A7700018BF00230E6808BF4B69A6EB07080F60DF
:10A780008B60B8F1000F9CDD43463A462846216AAB
:10A79000A66AB047002806DCA3894FF0FF3043F0DB
:10A7A0004003A3818EE70744A8EB0008E9E700BF58
:10A7B0000100402038B50B6905460C4613B9002549
:10A7C000284638BD18B183690BB900F087F8144BDF
:10A7D0009C421BD16C68B4F90C30002BEFD0626E38
:10A7E000D00704D4990502D4A06D00F015F92846CD
:10A7F0002146FFF759FF636E0546DA07E0D4A389C7
:10A800009B05DDD4A06D00F008F9D9E7054B9C420B
:10A8100001D1AC68DFE7044B9C4208BFEC68DAE783
:10A82000B4B50008D4B5000894B50008002310B5ED
:10A830000446C0E90033C0E9043383608181436684
:10A84000C2818361194608225C30FFF7D7FD054BB2
:10A8500024626362044BA362044BE362044B2363F0
:10A8600010BD00BF2DB200084FB2000887B200082B
:10A87000ABB20008014900F0AFB800BFB5A70008AF
:10A8800070B568254A1E55430E4605F1740100F067
:10A8900075F9044640B10021C0E900160C30A060F3
:10A8A00005F16802FFF7AAFD204670BD014800F0DF
:10A8B000B3B800BFDC270020014800F0AEB800BFED
:10A8C000DC270020014800F0A7B800BFD7270020F0
:10A8D000014800F0A2B800BFD727002010B50446F9
:10A8E000FFF7F0FFA3691BB1BDE81040FFF7F0BF11
:10A8F000C4E912332365134B134A1B68A262A342B7
:10A9000008BF0123204608BFA36100F01FF8606064
:10A91000204600F01BF8A060204600F017F8002247
:10A920000421E0606068FFF781FF01220921A0682F
:10A93000FFF77CFF02221221E068FFF777FF012377
:10A94000A361D1E790B5000875A80008F8B50746DF
:10A95000FFF7ACFF1E4B1E68B36913B93046FFF713
:10A96000BDFF4836D6E90134013B03D533680BB34C
:10A970003668F7E7B4F90C50D5B9164B04F1580016
:10A98000E360656600F047F8FFF796FF0822294666
:10A99000C4E90155C4E904552560A56104F15C00D2
:10A9A000FFF72CFDC4E90D55C4E912552046F8BD4A
:10A9B0006834D9E704213846FFF762FF0446306067
:10A9C0000028D5D1FFF778FF0C233B60EEE700BFEE
:10A9D00090B500080100FFFF2DE9F84306468846C0
:10A9E000002700F14804D4E90195B9F1010905D522
:10A9F0002468002CF7D13846BDE8F883AB89012BD9
:10AA000007D9B5F90E30013303D029463046C04787
:10AA100007436835E9E770477047704770B50E46E1
:10AA2000B1F90E10144600291D4696B007DA00232E
:10AA30002B60B3891A0610D44FF480630EE06A4687
:10AA400000F05AFC0028F2DB019A02F47042A2F5F1
:10AA500000535A425A412A60EEE740230020236007
:10AA600016B070BD8B8973B59D0706460C4607D599
:10AA700004F14703236023610123636102B070BDC9
:10AA80006A4601ABFFF7CAFF00990546304600F061
:10AA900075F848B9B4F90C309A05EFD423F00303E4
:10AAA00043F00203A381E3E70D4BB362A389206067
:10AAB00043F08003A381009B20616361019B5BB134
:10AAC0003046B4F90E1000F029FC28B1A38923F018
:10AAD000030343F00103A381A0890543A581CDE7CA
:10AAE00075A8000838B50546002943D051F8043C44
:10AAF0000C1F002BB8BFE41800F040FC1E4A13687E
:10AB0000104633B9636014602846BDE8384000F051
:10AB10003BBCA3420AD921686218934201BF1A685C
:10AB20005B685218226063600460EDE71A465B6858
:10AB30000BB1A342FAD911685018A0420BD120687A
:10AB40000144501883421160DED118685B680144EB
:10AB500011605360D8E702D90C232B60D4E720683A
:10AB600021188B4201BF19685B6809182160636076
:10AB70005460C9E738BD00BFEC190020F8B5CD1C02
:10AB800025F0030508350C2D38BF0C25002D064691
:10AB900001DBA94203D90C2333600020F8BD00F08B
:10ABA000EDFB21490A6814469CB9204F3B6823B944
:10ABB0002146304600F02AFB38602946304600F036
:10ABC00025FB431C23D10C233046336000F0DCFB13
:10ABD000E3E723685B1B17D40B2B03D923601C44CA
:10ABE000256004E06368A2420CBF0B6053603046EE
:10ABF00000F0CAFB04F10B00231D20F00700C21A6D
:10AC0000CCD01B1AA350C9E722466468CCE7C41C09
:10AC100024F00304A042E3D0211A304600F0F6FAF3
:10AC20000130DDD1CFE700BFEC190020F019002082
:10AC3000936810B4013B002B936007DA9469A34238
:10AC400001DB0A2902D110BCFFF76EBC1368581C47
:10AC500010601970084610BC7047F8B506460F46DC
:10AC60001446D518AC4201D1002007E03A463046E0
:10AC700014F8011BFFF7DCFF431CF3D1F8BD000003
:10AC80002DE9F04F0D461446984606469DB018B182
:10AC900083690BB9FFF722FE894B9D421BD1756872
:10ACA0006B6ED90705D4AB899A0502D4A86DFFF75E
:10ACB000B3FEAB891B0701D52B69EBB9294630469A
:10ACC000FFF784FCC0B16B6EDC070ED54FF0FF3090
:10ACD0001DB0BDE8F08F7B4B9D4201D1B568DFE729
:10ACE000794B9D4208BFF568DAE7AB899805EDD44A
:10ACF000A86DFFF792FEE9E70023099320238DF862
:10AD0000293030234FF00109CDF80C80DFF8BC81E9
:10AD10008DF82A3023469A4613F8012B0AB1252ACA
:10AD2000F9D1BAEB040B0BD05B46224629463046DC
:10AD3000FFF793FF013000F0AA80099A5A44099264
:10AD40009AF80030002B00F0A28000234FF0FF3271
:10AD5000CDE905230AF1010A049307938DF85330D6
:10AD60001A935446052214F8011B584800F0F8FACB
:10AD7000049AD8B9D10644BF20238DF85330130765
:10AD800044BF2B238DF853309AF800302A2B15D06E
:10AD9000544600204FF00A0C079A214611F8013B57
:10ADA000303B092B4ED9B0B1079214E0A0EB080359
:10ADB00009FA03F31343A2460493D2E7039B191D38
:10ADC0001B680391002BBBBF5B4242F0020207935A
:10ADD0000793B8BF049223782E2B0CD163782A2BCB
:10ADE00035D1039B02341A1D1B680392002BB8BF98
:10ADF0004FF0FF330593DFF8E4A00322504621789B
:10AE000000F0AEFA40B14023A0EB0A0003FA00F0D4
:10AE1000049B01340343049314F8011B06222C48BD
:10AE20008DF8281000F09CFA00283FD0294B1BBB5E
:10AE3000039B073323F0070308330393099B3B4429
:10AE4000099367E70C4601200CFB0232A5E70023BB
:10AE50004FF00A0C194601340593204610F8012BD7
:10AE6000303A092A03D9002BC5D00591C3E704461F
:10AE700001230CFB0121F0E703AB00932A46304687
:10AE8000154B04A9AFF300800746781CD6D16B6E32
:10AE9000D90705D4AB899A0502D4A86DFFF7BDFD8B
:10AEA000AB895B063FF512AF099811E703AB00933E
:10AEB0002A463046084B04A900F082F8E4E700BFB8
:10AEC000B4B50008D4B5000894B50008F4B500087E
:10AED000FEB50008000000005BAC0008FAB50008F1
:10AEE0002DE9F047164699468A680B690746934252
:10AEF000B8BF1346336091F843200C46DDF820803C
:10AF00000AB1013333602368990642BF33680233C4
:10AF10003360256815F0060506D104F1190AE368C7
:10AF200032689B1AAB4228DC94F84320131E226837
:10AF300018BF012392062DD44946384604F1430236
:10AF4000C047013020D02368E56803F00603042BD6
:10AF500018BF002532684FF00006A36808BFAD1A7D
:10AF6000226908BF25EAE5759342C4BF9B1AED1814
:10AF70001A34B5421AD1002008E00123524649464E
:10AF80003846C047013003D14FF0FF30BDE8F087AD
:10AF90000135C4E73020E11881F843005A1C94F8C9
:10AFA00045102244023382F84310C5E701232246AC
:10AFB00049463846C0470130E6D00136D9E700009F
:10AFC0002DE9FF470C46277E9146782F80469A460A
:10AFD0000C9904F1430207D8622F0AD8002F00F021
:10AFE000D980582F00F0A48004F1420684F8427002
:10AFF0003AE0A7F16303152BF6D801A050F823F02F
:10B0000059B000086DB00008E9AF0008E9AF0008CA
:10B01000E9AF0008E9AF00086DB00008E9AF00082B
:10B02000E9AF0008E9AF0008E9AF00087BB100080C
:10B030009DB000085DB10008E9AF0008E9AF000865
:10B040009DB10008E9AF00089DB00008E9AF000815
:10B05000E9AF000865B100080B6804F142061A1D4B
:10B060001B680A6084F842300123A4E02568086860
:10B070002E0600F104030AD505680B60002D03DAE3
:10B080002D236D4284F843300A235E4819E015F001
:10B09000400F05680B6018BF2DB2EFE70B682568FD
:10B0A000181D0860280601D51D6802E06906FBD559
:10B0B0001D886F2F0CBF08230A235248002184F8F3
:10B0C00043106668002EA8BF2168A660A4BF21F0C7
:10B0D000040121600DB9002E4DD01646B5FBF3F1E9
:10B0E00003FB1157C75D06F8017D2F46BB420D4695
:10B0F000F4D9082B0BD12368DF0708D523696168D1
:10B100009942DEBF302306F8013C06F1FF36921B60
:10B1100022614B4621464046CDF800A003AAFFF726
:10B12000DFFE01304CD14FF0FF3004B0BDE8F087B6
:10B13000344884F845700E68236856F8045B1F068F
:10B140000E6014D5D90744BF43F0200323601DB916
:10B15000236823F0200323601023AFE7236843F024
:10B16000200323607823284884F84530E3E75E060F
:10B1700048BFADB2E6E71646BBE70B6826681D1D63
:10B1800060690D6035061B6801D5186002E0710624
:10B19000FBD51880002316462361BAE70B681A1DF9
:10B1A0000A601E6800213046626800F0D9F808B1D4
:10B1B000801B606063682361002384F84330A8E744
:10B1C0003246494640462369D0470130ABD0236818
:10B1D0009B0713D4E068039B9842B8BF1846A4E7C6
:10B1E0000123324649464046D04701309BD00135C5
:10B1F000E36803995B1AAB42F2DCEBE7002504F14C
:10B200001906F5E705B6000816B6000838B500239C
:10B21000054D044608462B60F6F728F9431C02D179
:10B220002B6803B1236038BDE027002010B50C4621
:10B23000B1F90E1000F0AEF80028ABBF636DA38922
:10B240001B1823F48053ACBF6365A38110BD2DE9A7
:10B25000F0411F468B890546DB050C46164605D591
:10B2600002230022B1F90E1000F068F8A3893246DB
:10B2700023F48053A38128463B46B4F90E10BDE861
:10B28000F04100F017B810B50C46B1F90E1000F0FF
:10B2900055F8431CA38915BF606523F4805343F41C
:10B2A0008053A38118BFA38110BDB1F90E1000F027
:10B2B00013B8000038B50446084611460022054D73
:10B2C0002A601A46F6F785F8431C02D12B6803B1B1
:10B2D000236038BDE027002038B50023054D044623
:10B2E00008462B60F6F791F8431C02D12B6803B196
:10B2F000236038BDE027002038B50023064D044602
:10B30000084611462B60F6F78BF8431C02D12B68D8
:10B3100003B1236038BD00BFE027002038B500230B
:10B32000054D044608462B60F6F789F8431C02D108
:10B330002B6803B1236038BDE027002038B50446F0
:10B34000084611460022054D2A601A46F6F781F894
:10B35000431C02D12B6803B1236038BDE0270020D5
:10B36000034610B5C9B202449342184601D10020E9
:10B3700003E0047801338C42F6D110BD0148FFF799
:10B380004BBB00BFD82700200148FFF746BB00BFDA
:10B39000D827002038B50446084611460022054D3E
:10B3A0002A601A46F5F7F8FF431C02D12B6803B157
:10B3B000236038BDE0270020F8B500BFF8BC08BC0A
:10B3C0009E467047F8B500BFF8BC08BC9E46704763
:10B3D00064656661756C745461736B0047505320EB
:10B3E00053544152540D0000303A00002E2E2F438A
:10B3F0006F72652F5372632F6672656572746F7317
:10B400002E6300004572726F72204D6F756E743A34
:10B410002025732D25640D0A0000000066697273F3
:10B42000742E74787400000025732D25640D0A00B5
:10B430000000000053544D333220534420436172C6
:10B440006420492F4F204578616D706C65207669C6
:10B4500061205350490D0A00536176652074686578
:10B4600020776F726C642121210D0A00222A2B2C77
:10B470003A3B3C3D3E3F5B5D7C7F0000EBFE904DE8
:10B4800053444F53352E30004E4F204E414D4520F2
:10B490002020204641543332202020004E4F204EA1
:10B4A000414D4520202020464154202020202000CE
:10B4B00049444C4500000000546D722053766300EF
:10B4C000546D725100000000D0B30008000000006D
:10B4D000000000000000000000000000000200006A
:10B4E000180000000000000000000000030406082F
:10B4F0000C101820300000000000000000000000C8
:10B500000102030406070809000000000102030409
:10B5100043554541414141434545454949494141DB
:10B520004592924F4F4F5555594F554F9C4F9E9FA7
:10B5300041494F55A5A5A6A7A8A9AAABACADAEAFEA
:10B54000B0B1B2B3B4414141B8B9BABBBCBDBEBFE2
:10B55000C0C1C2C3C4C54141C8C9CACBCCCDCECF7E
:10B56000D1D145454549494949D9DADBDCDD49DFD7
:10B570004FE14F4F4F4FE6E8E85555555959EEEF1B
:10B58000F0F1F2F3F4F5F6F7F8F9FAFBFCFDFEFF43
:10B590002C0000200000000000000000000000005F
:10B5A000000000000000000000000000000000009B
:10B5B000000000000000000000000000000000008B
:10B5C000000000000000000000000000000000007B
:10B5D000000000000000000000000000000000006B
:10B5E000000000000000000000000000000000005B
:10B5F00000000000232D302B2000686C4C00656695
:10B6000067454647003031323334353637383941B3
:10B6100042434445460030313233343536373839C9
:08B620006162636465660000CD
:08B628009451FF7F01000000B6
:04B6300065010008A8
:04B6340041010008C8
:10B6380068FF1F001000000001000000010000006A
:10B648004D5000086950000885500008AB500008AC
:10B65800D1500008AAAAAAAA2C00002000000000C5
:10B66800B4B50008D4B5000894B50008000000007F
:10B6780000000000000000000000000000000000C2
:10B6880000000000000000000000000000000000B2
:10B6980000000000000000000000000000000000A2
:10B6A8000000000000000000000000000000000092
:0CB6B80000000000000000000000000086
:0400000508001711C7
:00000001FF
